{
  "_format": "hh-sol-artifact-1",
  "contractName": "Authentication",
  "sourceName": "contracts/Authentication.sol",
  "abi": [
    {
      "inputs": [],
      "stateMutability": "nonpayable",
      "type": "constructor"
    },
    {
      "inputs": [
        {
          "internalType": "string",
          "name": "pan",
          "type": "string"
        }
      ],
      "name": "accessDocs",
      "outputs": [
        {
          "internalType": "string[]",
          "name": "",
          "type": "string[]"
        }
      ],
      "stateMutability": "view",
      "type": "function"
    },
    {
      "inputs": [
        {
          "internalType": "string",
          "name": "_property_location",
          "type": "string"
        },
        {
          "internalType": "string",
          "name": "_newipfslink",
          "type": "string"
        }
      ],
      "name": "allot_property",
      "outputs": [],
      "stateMutability": "nonpayable",
      "type": "function"
    },
    {
      "inputs": [
        {
          "internalType": "string",
          "name": "pan",
          "type": "string"
        }
      ],
      "name": "checkPANDetails",
      "outputs": [
        {
          "internalType": "string",
          "name": "",
          "type": "string"
        }
      ],
      "stateMutability": "view",
      "type": "function"
    },
    {
      "inputs": [
        {
          "internalType": "address",
          "name": "userAddr",
          "type": "address"
        }
      ],
      "name": "getEmail",
      "outputs": [
        {
          "internalType": "string",
          "name": "",
          "type": "string"
        }
      ],
      "stateMutability": "view",
      "type": "function"
    },
    {
      "inputs": [],
      "name": "getGovAddress",
      "outputs": [
        {
          "internalType": "address",
          "name": "",
          "type": "address"
        }
      ],
      "stateMutability": "view",
      "type": "function"
    },
    {
      "inputs": [
        {
          "internalType": "address",
          "name": "userAddr",
          "type": "address"
        }
      ],
      "name": "getIPFS",
      "outputs": [
        {
          "internalType": "string",
          "name": "",
          "type": "string"
        }
      ],
      "stateMutability": "view",
      "type": "function"
    },
    {
      "inputs": [
        {
          "internalType": "address",
          "name": "userAddr",
          "type": "address"
        }
      ],
      "name": "getOTP",
      "outputs": [
        {
          "internalType": "uint256",
          "name": "",
          "type": "uint256"
        }
      ],
      "stateMutability": "view",
      "type": "function"
    },
    {
      "inputs": [],
      "name": "getSignatureHash",
      "outputs": [
        {
          "internalType": "string",
          "name": "",
          "type": "string"
        }
      ],
      "stateMutability": "view",
      "type": "function"
    },
    {
      "inputs": [],
      "name": "getSignatureHashGov",
      "outputs": [
        {
          "internalType": "string",
          "name": "",
          "type": "string"
        }
      ],
      "stateMutability": "view",
      "type": "function"
    },
    {
      "inputs": [],
      "name": "getUserAddress",
      "outputs": [
        {
          "internalType": "address",
          "name": "",
          "type": "address"
        }
      ],
      "stateMutability": "view",
      "type": "function"
    },
    {
      "inputs": [
        {
          "internalType": "string",
          "name": "pan",
          "type": "string"
        }
      ],
      "name": "getUserAddressfromPAN",
      "outputs": [
        {
          "internalType": "address",
          "name": "",
          "type": "address"
        }
      ],
      "stateMutability": "view",
      "type": "function"
    },
    {
      "inputs": [
        {
          "internalType": "address",
          "name": "userAddr",
          "type": "address"
        }
      ],
      "name": "get_all_property_details",
      "outputs": [
        {
          "internalType": "string[][]",
          "name": "",
          "type": "string[][]"
        }
      ],
      "stateMutability": "view",
      "type": "function"
    },
    {
      "inputs": [
        {
          "internalType": "address",
          "name": "userAddr",
          "type": "address"
        }
      ],
      "name": "get_all_property_index",
      "outputs": [
        {
          "internalType": "uint256[]",
          "name": "",
          "type": "uint256[]"
        }
      ],
      "stateMutability": "view",
      "type": "function"
    },
    {
      "inputs": [
        {
          "internalType": "address",
          "name": "userAddr",
          "type": "address"
        }
      ],
      "name": "get_all_property_owners_addresses",
      "outputs": [
        {
          "internalType": "address[][]",
          "name": "",
          "type": "address[][]"
        }
      ],
      "stateMutability": "view",
      "type": "function"
    },
    {
      "inputs": [
        {
          "internalType": "address",
          "name": "userAddr",
          "type": "address"
        }
      ],
      "name": "get_current_property_index",
      "outputs": [
        {
          "internalType": "uint256",
          "name": "",
          "type": "uint256"
        }
      ],
      "stateMutability": "view",
      "type": "function"
    },
    {
      "inputs": [
        {
          "internalType": "address",
          "name": "userAddr",
          "type": "address"
        },
        {
          "internalType": "uint256",
          "name": "index",
          "type": "uint256"
        }
      ],
      "name": "get_property_details",
      "outputs": [
        {
          "internalType": "string[]",
          "name": "",
          "type": "string[]"
        }
      ],
      "stateMutability": "view",
      "type": "function"
    },
    {
      "inputs": [
        {
          "internalType": "address",
          "name": "userAddr",
          "type": "address"
        },
        {
          "internalType": "uint256",
          "name": "index",
          "type": "uint256"
        }
      ],
      "name": "get_property_owners_addresses",
      "outputs": [
        {
          "internalType": "address[]",
          "name": "",
          "type": "address[]"
        }
      ],
      "stateMutability": "view",
      "type": "function"
    },
    {
      "inputs": [],
      "name": "nbOfUsers",
      "outputs": [
        {
          "internalType": "uint256",
          "name": "",
          "type": "uint256"
        }
      ],
      "stateMutability": "view",
      "type": "function"
    },
    {
      "inputs": [],
      "name": "propertyIndex",
      "outputs": [
        {
          "internalType": "uint256",
          "name": "",
          "type": "uint256"
        }
      ],
      "stateMutability": "view",
      "type": "function"
    },
    {
      "inputs": [
        {
          "internalType": "string",
          "name": "_signature",
          "type": "string"
        },
        {
          "internalType": "string",
          "name": "pan",
          "type": "string"
        },
        {
          "internalType": "string",
          "name": "email",
          "type": "string"
        }
      ],
      "name": "register",
      "outputs": [],
      "stateMutability": "nonpayable",
      "type": "function"
    },
    {
      "inputs": [
        {
          "internalType": "string",
          "name": "propertyDesc",
          "type": "string"
        },
        {
          "internalType": "string",
          "name": "oldLink",
          "type": "string"
        },
        {
          "internalType": "string",
          "name": "newLink",
          "type": "string"
        }
      ],
      "name": "registerDocs",
      "outputs": [],
      "stateMutability": "nonpayable",
      "type": "function"
    },
    {
      "inputs": [
        {
          "internalType": "string",
          "name": "_signature",
          "type": "string"
        }
      ],
      "name": "registerGov",
      "outputs": [],
      "stateMutability": "nonpayable",
      "type": "function"
    },
    {
      "inputs": [
        {
          "internalType": "string",
          "name": "_property_location",
          "type": "string"
        },
        {
          "internalType": "string",
          "name": "panNumber",
          "type": "string"
        },
        {
          "internalType": "string",
          "name": "_newipfslink",
          "type": "string"
        },
        {
          "internalType": "uint256",
          "name": "index",
          "type": "uint256"
        }
      ],
      "name": "sell_property",
      "outputs": [],
      "stateMutability": "nonpayable",
      "type": "function"
    },
    {
      "inputs": [
        {
          "internalType": "string",
          "name": "pan",
          "type": "string"
        },
        {
          "internalType": "uint256",
          "name": "otp",
          "type": "uint256"
        }
      ],
      "name": "setOTP",
      "outputs": [],
      "stateMutability": "nonpayable",
      "type": "function"
    },
    {
      "inputs": [
        {
          "internalType": "address",
          "name": "userAddr",
          "type": "address"
        },
        {
          "internalType": "uint256",
          "name": "index",
          "type": "uint256"
        },
        {
          "internalType": "string",
          "name": "ipfs",
          "type": "string"
        }
      ],
      "name": "set_current_property_index_setIPFS",
      "outputs": [],
      "stateMutability": "nonpayable",
      "type": "function"
    }
  ],
  "bytecode": "0x608060405234801561001057600080fd5b506000808190555060006001819055506150e48061002f6000396000f3fe608060405234801561001057600080fd5b50600436106101735760003560e01c80638ae8f875116100de578063c2c3e56611610097578063dd66f08c11610071578063dd66f08c146104a6578063ebc3eee8146104d6578063ef4a63b8146104f4578063f56720b51461051257610173565b8063c2c3e56614610450578063c2ea2a8a1461046e578063d15d7daa1461048a57610173565b80638ae8f8751461036a5780639400f3b41461039a5780639bca9f1a146103b6578063b944dc34146103e6578063c127ae4114610402578063c2a841791461042057610173565b80634fa7353c116101305780634fa7353c14610272578063614ed19e146102a2578063636d757d146102be57806374efaa61146102ee5780637be6a23b1461031e57806383b0c9d91461034e57610173565b80630896ee4e1461017857806312679323146101a857806331b2a8c2146101c657806333f235c1146101f65780633fad184b146102265780634cd08d0314610256575b600080fd5b610192600480360381019061018d9190613e48565b610530565b60405161019f9190614816565b60405180910390f35b6101b06106b9565b6040516101bd9190614978565b60405180910390f35b6101e060048036038101906101db9190613f24565b6106bf565b6040516101ed9190614816565b60405180910390f35b610210600480360381019061020b9190613f24565b6107af565b60405161021d91906147d2565b60405180910390f35b610240600480360381019061023b9190613e75565b610b91565b60405161024d91906147d2565b60405180910390f35b610270600480360381019061026b9190613fe5565b6110a0565b005b61028c60048036038101906102879190613e48565b611370565b6040516102999190614816565b60405180910390f35b6102bc60048036038101906102b79190614147565b61155e565b005b6102d860048036038101906102d39190613f24565b611666565b6040516102e59190614751565b60405180910390f35b61030860048036038101906103039190613e48565b611730565b6040516103159190614978565b60405180910390f35b61033860048036038101906103339190613e48565b611833565b6040516103459190614978565b60405180910390f35b61036860048036038101906103639190613eb5565b611934565b005b610384600480360381019061037f9190613e48565b611b3f565b60405161039191906147f4565b60405180910390f35b6103b460048036038101906103af9190613f24565b611d6e565b005b6103d060048036038101906103cb9190613e75565b611f9c565b6040516103dd919061476c565b60405180910390f35b61040060048036038101906103fb9190613fe5565b6121f9565b005b61040a6123d3565b6040516104179190614816565b60405180910390f35b61043a60048036038101906104359190613e48565b612575565b604051610447919061478e565b60405180910390f35b61045861282c565b6040516104659190614816565b60405180910390f35b6104886004803603810190610483919061408c565b6129ce565b005b6104a4600480360381019061049f9190613f6d565b613248565b005b6104c060048036038101906104bb9190613e48565b613524565b6040516104cd91906147b0565b60405180910390f35b6104de613a67565b6040516104eb9190614751565b60405180910390f35b6104fc613ad1565b6040516105099190614751565b60405180910390f35b61051a613b3b565b6040516105279190614978565b60405180910390f35b60608173ffffffffffffffffffffffffffffffffffffffff163373ffffffffffffffffffffffffffffffffffffffff1614806105ab5750739c459e648558e3e94432ea1ce9ce9859f39290b773ffffffffffffffffffffffffffffffffffffffff163373ffffffffffffffffffffffffffffffffffffffff16145b6105ea576040517f08c379a00000000000000000000000000000000000000000000000000000000081526004016105e190614898565b60405180910390fd5b600b60008373ffffffffffffffffffffffffffffffffffffffff1673ffffffffffffffffffffffffffffffffffffffff168152602001908152602001600020805461063490614c92565b80601f016020809104026020016040519081016040528092919081815260200182805461066090614c92565b80156106ad5780601f10610682576101008083540402835291602001916106ad565b820191906000526020600020905b81548152906001019060200180831161069057829003601f168201915b50505050509050919050565b60005481565b6060600073ffffffffffffffffffffffffffffffffffffffff166004836040516106e9919061473a565b908152602001604051809103902060009054906101000a900473ffffffffffffffffffffffffffffffffffffffff1673ffffffffffffffffffffffffffffffffffffffff161415610771576040518060400160405280600a81526020017f4e6f74204578697374730000000000000000000000000000000000000000000081525090506107aa565b6040518060400160405280600681526020017f457869737473000000000000000000000000000000000000000000000000000081525090505b919050565b6060739c459e648558e3e94432ea1ce9ce9859f39290b773ffffffffffffffffffffffffffffffffffffffff163373ffffffffffffffffffffffffffffffffffffffff1614610833576040517f08c379a000000000000000000000000000000000000000000000000000000000815260040161082a90614938565b60405180910390fd5b6000600367ffffffffffffffff8111156108505761084f614dfa565b5b60405190808252806020026020018201604052801561088357816020015b606081526020019060019003908161086e5790505b5090506000600484604051610898919061473a565b908152602001604051809103902060009054906101000a900473ffffffffffffffffffffffffffffffffffffffff169050600560008273ffffffffffffffffffffffffffffffffffffffff1673ffffffffffffffffffffffffffffffffffffffff168152602001908152602001600020600001805461091690614c92565b80601f016020809104026020016040519081016040528092919081815260200182805461094290614c92565b801561098f5780601f106109645761010080835404028352916020019161098f565b820191906000526020600020905b81548152906001019060200180831161097257829003601f168201915b5050505050826000815181106109a8576109a7614dcb565b5b6020026020010181905250600560008273ffffffffffffffffffffffffffffffffffffffff1673ffffffffffffffffffffffffffffffffffffffff1681526020019081526020016000206001018054610a0090614c92565b80601f0160208091040260200160405190810160405280929190818152602001828054610a2c90614c92565b8015610a795780601f10610a4e57610100808354040283529160200191610a79565b820191906000526020600020905b815481529060010190602001808311610a5c57829003601f168201915b505050505082600181518110610a9257610a91614dcb565b5b6020026020010181905250600560008273ffffffffffffffffffffffffffffffffffffffff1673ffffffffffffffffffffffffffffffffffffffff1681526020019081526020016000206002018054610aea90614c92565b80601f0160208091040260200160405190810160405280929190818152602001828054610b1690614c92565b8015610b635780601f10610b3857610100808354040283529160200191610b63565b820191906000526020600020905b815481529060010190602001808311610b4657829003601f168201915b505050505082600281518110610b7c57610b7b614dcb565b5b60200260200101819052508192505050919050565b60608273ffffffffffffffffffffffffffffffffffffffff163373ffffffffffffffffffffffffffffffffffffffff161480610c0c5750739c459e648558e3e94432ea1ce9ce9859f39290b773ffffffffffffffffffffffffffffffffffffffff163373ffffffffffffffffffffffffffffffffffffffff16145b610c4b576040517f08c379a0000000000000000000000000000000000000000000000000000000008152600401610c4290614838565b60405180910390fd5b8273ffffffffffffffffffffffffffffffffffffffff16600a600084815260200190815260200160002060009054906101000a900473ffffffffffffffffffffffffffffffffffffffff1673ffffffffffffffffffffffffffffffffffffffff1614610cec576040517f08c379a0000000000000000000000000000000000000000000000000000000008152600401610ce390614958565b60405180910390fd5b6000600367ffffffffffffffff811115610d0957610d08614dfa565b5b604051908082528060200260200182016040528015610d3c57816020015b6060815260200190600190039081610d275790505b509050600660008573ffffffffffffffffffffffffffffffffffffffff1673ffffffffffffffffffffffffffffffffffffffff168152602001908152602001600020600960008581526020019081526020016000205481548110610da357610da2614dcb565b5b90600052602060002090600502016001018054610dbf90614c92565b80601f0160208091040260200160405190810160405280929190818152602001828054610deb90614c92565b8015610e385780601f10610e0d57610100808354040283529160200191610e38565b820191906000526020600020905b815481529060010190602001808311610e1b57829003601f168201915b505050505081600081518110610e5157610e50614dcb565b5b6020026020010181905250600660008573ffffffffffffffffffffffffffffffffffffffff1673ffffffffffffffffffffffffffffffffffffffff168152602001908152602001600020600960008581526020019081526020016000205481548110610ec057610ebf614dcb565b5b90600052602060002090600502016002018054610edc90614c92565b80601f0160208091040260200160405190810160405280929190818152602001828054610f0890614c92565b8015610f555780601f10610f2a57610100808354040283529160200191610f55565b820191906000526020600020905b815481529060010190602001808311610f3857829003601f168201915b505050505081600181518110610f6e57610f6d614dcb565b5b6020026020010181905250600660008573ffffffffffffffffffffffffffffffffffffffff1673ffffffffffffffffffffffffffffffffffffffff168152602001908152602001600020600960008581526020019081526020016000205481548110610fdd57610fdc614dcb565b5b90600052602060002090600502016003018054610ff990614c92565b80601f016020809104026020016040519081016040528092919081815260200182805461102590614c92565b80156110725780601f1061104757610100808354040283529160200191611072565b820191906000526020600020905b81548152906001019060200180831161105557829003601f168201915b50505050508160028151811061108b5761108a614dcb565b5b60200260200101819052508091505092915050565b600073ffffffffffffffffffffffffffffffffffffffff16600260003373ffffffffffffffffffffffffffffffffffffffff1673ffffffffffffffffffffffffffffffffffffffff16815260200190815260200160002060010160009054906101000a900473ffffffffffffffffffffffffffffffffffffffff1673ffffffffffffffffffffffffffffffffffffffff1614611171576040517f08c379a000000000000000000000000000000000000000000000000000000000815260040161116890614858565b60405180910390fd5b82600260003373ffffffffffffffffffffffffffffffffffffffff1673ffffffffffffffffffffffffffffffffffffffff16815260200190815260200160002060000190805190602001906111c7929190613b41565b5033600260003373ffffffffffffffffffffffffffffffffffffffff1673ffffffffffffffffffffffffffffffffffffffff16815260200190815260200160002060010160006101000a81548173ffffffffffffffffffffffffffffffffffffffff021916908373ffffffffffffffffffffffffffffffffffffffff16021790555081600260003373ffffffffffffffffffffffffffffffffffffffff1673ffffffffffffffffffffffffffffffffffffffff168152602001908152602001600020600201908051906020019061129f929190613b41565b5080600260003373ffffffffffffffffffffffffffffffffffffffff1673ffffffffffffffffffffffffffffffffffffffff16815260200190815260200160002060030190805190602001906112f6929190613b41565b5033600483604051611308919061473a565b908152602001604051809103902060006101000a81548173ffffffffffffffffffffffffffffffffffffffff021916908373ffffffffffffffffffffffffffffffffffffffff16021790555060008081548092919061136690614cf5565b9190505550505050565b6060600260003373ffffffffffffffffffffffffffffffffffffffff1673ffffffffffffffffffffffffffffffffffffffff16815260200190815260200160002060010160009054906101000a900473ffffffffffffffffffffffffffffffffffffffff1673ffffffffffffffffffffffffffffffffffffffff163373ffffffffffffffffffffffffffffffffffffffff16148061144d5750739c459e648558e3e94432ea1ce9ce9859f39290b773ffffffffffffffffffffffffffffffffffffffff163373ffffffffffffffffffffffffffffffffffffffff16145b61148c576040517f08c379a0000000000000000000000000000000000000000000000000000000008152600401611483906148d8565b60405180910390fd5b600260008373ffffffffffffffffffffffffffffffffffffffff1673ffffffffffffffffffffffffffffffffffffffff16815260200190815260200160002060030180546114d990614c92565b80601f016020809104026020016040519081016040528092919081815260200182805461150590614c92565b80156115525780601f1061152757610100808354040283529160200191611552565b820191906000526020600020905b81548152906001019060200180831161153557829003601f168201915b50505050509050919050565b739c459e648558e3e94432ea1ce9ce9859f39290b773ffffffffffffffffffffffffffffffffffffffff163373ffffffffffffffffffffffffffffffffffffffff16146115e0576040517f08c379a00000000000000000000000000000000000000000000000000000000081526004016115d790614918565b60405180910390fd5b80600c60006004856040516115f5919061473a565b908152602001604051809103902060009054906101000a900473ffffffffffffffffffffffffffffffffffffffff1673ffffffffffffffffffffffffffffffffffffffff1673ffffffffffffffffffffffffffffffffffffffff168152602001908152602001600020819055505050565b6000739c459e648558e3e94432ea1ce9ce9859f39290b773ffffffffffffffffffffffffffffffffffffffff163373ffffffffffffffffffffffffffffffffffffffff16146116ea576040517f08c379a00000000000000000000000000000000000000000000000000000000081526004016116e190614918565b60405180910390fd5b6004826040516116fa919061473a565b908152602001604051809103902060009054906101000a900473ffffffffffffffffffffffffffffffffffffffff169050919050565b60008173ffffffffffffffffffffffffffffffffffffffff163373ffffffffffffffffffffffffffffffffffffffff161480156117ad5750739c459e648558e3e94432ea1ce9ce9859f39290b773ffffffffffffffffffffffffffffffffffffffff163373ffffffffffffffffffffffffffffffffffffffff1614155b6117ec576040517f08c379a00000000000000000000000000000000000000000000000000000000081526004016117e390614918565b60405180910390fd5b600c60008373ffffffffffffffffffffffffffffffffffffffff1673ffffffffffffffffffffffffffffffffffffffff168152602001908152602001600020549050919050565b60008173ffffffffffffffffffffffffffffffffffffffff163373ffffffffffffffffffffffffffffffffffffffff1614806118ae5750739c459e648558e3e94432ea1ce9ce9859f39290b773ffffffffffffffffffffffffffffffffffffffff163373ffffffffffffffffffffffffffffffffffffffff16145b6118ed576040517f08c379a00000000000000000000000000000000000000000000000000000000081526004016118e490614838565b60405180910390fd5b600860008373ffffffffffffffffffffffffffffffffffffffff1673ffffffffffffffffffffffffffffffffffffffff168152602001908152602001600020549050919050565b8273ffffffffffffffffffffffffffffffffffffffff163373ffffffffffffffffffffffffffffffffffffffff161480156119af5750739c459e648558e3e94432ea1ce9ce9859f39290b773ffffffffffffffffffffffffffffffffffffffff163373ffffffffffffffffffffffffffffffffffffffff1614155b6119ee576040517f08c379a00000000000000000000000000000000000000000000000000000000081526004016119e5906148f8565b60405180910390fd5b8273ffffffffffffffffffffffffffffffffffffffff16600a600084815260200190815260200160002060009054906101000a900473ffffffffffffffffffffffffffffffffffffffff1673ffffffffffffffffffffffffffffffffffffffff1614611a8f576040517f08c379a0000000000000000000000000000000000000000000000000000000008152600401611a8690614958565b60405180910390fd5b6009600083815260200190815260200160002054600860008573ffffffffffffffffffffffffffffffffffffffff1673ffffffffffffffffffffffffffffffffffffffff1681526020019081526020016000208190555080600b60008573ffffffffffffffffffffffffffffffffffffffff1673ffffffffffffffffffffffffffffffffffffffff1681526020019081526020016000209080519060200190611b39929190613b41565b50505050565b60608173ffffffffffffffffffffffffffffffffffffffff163373ffffffffffffffffffffffffffffffffffffffff161480611bba5750739c459e648558e3e94432ea1ce9ce9859f39290b773ffffffffffffffffffffffffffffffffffffffff163373ffffffffffffffffffffffffffffffffffffffff16145b611bf9576040517f08c379a0000000000000000000000000000000000000000000000000000000008152600401611bf090614838565b60405180910390fd5b6000600760008473ffffffffffffffffffffffffffffffffffffffff1673ffffffffffffffffffffffffffffffffffffffff1681526020019081526020016000205467ffffffffffffffff811115611c5457611c53614dfa565b5b604051908082528060200260200182016040528015611c825781602001602082028036833780820191505090505b50905060005b600760008573ffffffffffffffffffffffffffffffffffffffff1673ffffffffffffffffffffffffffffffffffffffff16815260200190815260200160002054811015611d6457600660008573ffffffffffffffffffffffffffffffffffffffff1673ffffffffffffffffffffffffffffffffffffffff1681526020019081526020016000208181548110611d2057611d1f614dcb565b5b906000526020600020906005020160000154828281518110611d4557611d44614dcb565b5b6020026020010181815250508080611d5c90614cf5565b915050611c88565b5080915050919050565b600073ffffffffffffffffffffffffffffffffffffffff16600360003373ffffffffffffffffffffffffffffffffffffffff1673ffffffffffffffffffffffffffffffffffffffff16815260200190815260200160002060010160009054906101000a900473ffffffffffffffffffffffffffffffffffffffff1673ffffffffffffffffffffffffffffffffffffffff1614611e3f576040517f08c379a0000000000000000000000000000000000000000000000000000000008152600401611e3690614858565b60405180910390fd5b739c459e648558e3e94432ea1ce9ce9859f39290b773ffffffffffffffffffffffffffffffffffffffff163373ffffffffffffffffffffffffffffffffffffffff1614611ec1576040517f08c379a0000000000000000000000000000000000000000000000000000000008152600401611eb8906148b8565b60405180910390fd5b80600360003373ffffffffffffffffffffffffffffffffffffffff1673ffffffffffffffffffffffffffffffffffffffff1681526020019081526020016000206000019080519060200190611f17929190613b41565b5033600360003373ffffffffffffffffffffffffffffffffffffffff1673ffffffffffffffffffffffffffffffffffffffff16815260200190815260200160002060010160006101000a81548173ffffffffffffffffffffffffffffffffffffffff021916908373ffffffffffffffffffffffffffffffffffffffff16021790555050565b60608273ffffffffffffffffffffffffffffffffffffffff163373ffffffffffffffffffffffffffffffffffffffff1614806120175750739c459e648558e3e94432ea1ce9ce9859f39290b773ffffffffffffffffffffffffffffffffffffffff163373ffffffffffffffffffffffffffffffffffffffff16145b612056576040517f08c379a000000000000000000000000000000000000000000000000000000000815260040161204d90614838565b60405180910390fd5b8273ffffffffffffffffffffffffffffffffffffffff16600a600084815260200190815260200160002060009054906101000a900473ffffffffffffffffffffffffffffffffffffffff1673ffffffffffffffffffffffffffffffffffffffff16146120f7576040517f08c379a00000000000000000000000000000000000000000000000000000000081526004016120ee90614958565b60405180910390fd5b600660008473ffffffffffffffffffffffffffffffffffffffff1673ffffffffffffffffffffffffffffffffffffffff16815260200190815260200160002060096000848152602001908152602001600020548154811061215b5761215a614dcb565b5b90600052602060002090600502016004018054806020026020016040519081016040528092919081815260200182805480156121ec57602002820191906000526020600020905b8160009054906101000a900473ffffffffffffffffffffffffffffffffffffffff1673ffffffffffffffffffffffffffffffffffffffff16815260200190600101908083116121a2575b5050505050905092915050565b600260003373ffffffffffffffffffffffffffffffffffffffff1673ffffffffffffffffffffffffffffffffffffffff16815260200190815260200160002060010160009054906101000a900473ffffffffffffffffffffffffffffffffffffffff1673ffffffffffffffffffffffffffffffffffffffff163373ffffffffffffffffffffffffffffffffffffffff16146122c9576040517f08c379a00000000000000000000000000000000000000000000000000000000081526004016122c090614878565b60405180910390fd5b82600560003373ffffffffffffffffffffffffffffffffffffffff1673ffffffffffffffffffffffffffffffffffffffff168152602001908152602001600020600001908051906020019061231f929190613b41565b5081600560003373ffffffffffffffffffffffffffffffffffffffff1673ffffffffffffffffffffffffffffffffffffffff1681526020019081526020016000206001019080519060200190612376929190613b41565b5080600560003373ffffffffffffffffffffffffffffffffffffffff1673ffffffffffffffffffffffffffffffffffffffff16815260200190815260200160002060020190805190602001906123cd929190613b41565b50505050565b6060600260003373ffffffffffffffffffffffffffffffffffffffff1673ffffffffffffffffffffffffffffffffffffffff16815260200190815260200160002060010160009054906101000a900473ffffffffffffffffffffffffffffffffffffffff1673ffffffffffffffffffffffffffffffffffffffff163373ffffffffffffffffffffffffffffffffffffffff16146124a5576040517f08c379a000000000000000000000000000000000000000000000000000000000815260040161249c906148d8565b60405180910390fd5b600260003373ffffffffffffffffffffffffffffffffffffffff1673ffffffffffffffffffffffffffffffffffffffff16815260200190815260200160002060000180546124f290614c92565b80601f016020809104026020016040519081016040528092919081815260200182805461251e90614c92565b801561256b5780601f106125405761010080835404028352916020019161256b565b820191906000526020600020905b81548152906001019060200180831161254e57829003601f168201915b5050505050905090565b60608173ffffffffffffffffffffffffffffffffffffffff163373ffffffffffffffffffffffffffffffffffffffff1614806125f05750739c459e648558e3e94432ea1ce9ce9859f39290b773ffffffffffffffffffffffffffffffffffffffff163373ffffffffffffffffffffffffffffffffffffffff16145b61262f576040517f08c379a000000000000000000000000000000000000000000000000000000000815260040161262690614838565b60405180910390fd5b6000600760008473ffffffffffffffffffffffffffffffffffffffff1673ffffffffffffffffffffffffffffffffffffffff1681526020019081526020016000205467ffffffffffffffff81111561268a57612689614dfa565b5b6040519080825280602002602001820160405280156126bd57816020015b60608152602001906001900390816126a85790505b50905060005b600760008573ffffffffffffffffffffffffffffffffffffffff1673ffffffffffffffffffffffffffffffffffffffff1681526020019081526020016000205481101561282257600660008573ffffffffffffffffffffffffffffffffffffffff1673ffffffffffffffffffffffffffffffffffffffff168152602001908152602001600020818154811061275b5761275a614dcb565b5b90600052602060002090600502016004018054806020026020016040519081016040528092919081815260200182805480156127ec57602002820191906000526020600020905b8160009054906101000a900473ffffffffffffffffffffffffffffffffffffffff1673ffffffffffffffffffffffffffffffffffffffff16815260200190600101908083116127a2575b505050505082828151811061280457612803614dcb565b5b6020026020010181905250808061281a90614cf5565b9150506126c3565b5080915050919050565b6060600360003373ffffffffffffffffffffffffffffffffffffffff1673ffffffffffffffffffffffffffffffffffffffff16815260200190815260200160002060010160009054906101000a900473ffffffffffffffffffffffffffffffffffffffff1673ffffffffffffffffffffffffffffffffffffffff163373ffffffffffffffffffffffffffffffffffffffff16146128fe576040517f08c379a00000000000000000000000000000000000000000000000000000000081526004016128f5906148d8565b60405180910390fd5b600360003373ffffffffffffffffffffffffffffffffffffffff1673ffffffffffffffffffffffffffffffffffffffff168152602001908152602001600020600001805461294b90614c92565b80601f016020809104026020016040519081016040528092919081815260200182805461297790614c92565b80156129c45780601f10612999576101008083540402835291602001916129c4565b820191906000526020600020905b8154815290600101906020018083116129a757829003601f168201915b5050505050905090565b60006004846040516129e0919061473a565b908152602001604051809103902060009054906101000a900473ffffffffffffffffffffffffffffffffffffffff1690506000600660003373ffffffffffffffffffffffffffffffffffffffff1673ffffffffffffffffffffffffffffffffffffffff168152602001908152602001600020600960008581526020019081526020016000205481548110612a7757612a76614dcb565b5b90600052602060002090600502016004018054905090506000600182612a9d9190614b60565b67ffffffffffffffff811115612ab657612ab5614dfa565b5b604051908082528060200260200182016040528015612ae45781602001602082028036833780820191505090505b50905060005b82811015612c0457600660003373ffffffffffffffffffffffffffffffffffffffff1673ffffffffffffffffffffffffffffffffffffffff168152602001908152602001600020600960008781526020019081526020016000205481548110612b5657612b55614dcb565b5b90600052602060002090600502016004018181548110612b7957612b78614dcb565b5b9060005260206000200160009054906101000a900473ffffffffffffffffffffffffffffffffffffffff16828281518110612bb757612bb6614dcb565b5b602002602001019073ffffffffffffffffffffffffffffffffffffffff16908173ffffffffffffffffffffffffffffffffffffffff16815250508080612bfc90614cf5565b915050612aea565b5082818381518110612c1957612c18614dcb565b5b602002602001019073ffffffffffffffffffffffffffffffffffffffff16908173ffffffffffffffffffffffffffffffffffffffff16815250506000600660008573ffffffffffffffffffffffffffffffffffffffff1673ffffffffffffffffffffffffffffffffffffffff1681526020019081526020016000208054905090506000600660003373ffffffffffffffffffffffffffffffffffffffff1673ffffffffffffffffffffffffffffffffffffffff168152602001908152602001600020600960008881526020019081526020016000205481548110612d0057612cff614dcb565b5b90600052602060002090600502016003018054612d1c90614c92565b80601f0160208091040260200160405190810160405280929190818152602001828054612d4890614c92565b8015612d955780601f10612d6a57610100808354040283529160200191612d95565b820191906000526020600020905b815481529060010190602001808311612d7857829003601f168201915b50505050509050600660008673ffffffffffffffffffffffffffffffffffffffff1673ffffffffffffffffffffffffffffffffffffffff1681526020019081526020016000206040518060a001604052808881526020018b8152602001838152602001898152602001858152509080600181540180825580915050600190039060005260206000209060050201600090919091909150600082015181600001556020820151816001019080519060200190612e51929190613b41565b506040820151816002019080519060200190612e6e929190613b41565b506060820151816003019080519060200190612e8b929190613b41565b506080820151816004019080519060200190612ea8929190613bc7565b505050600760008673ffffffffffffffffffffffffffffffffffffffff1673ffffffffffffffffffffffffffffffffffffffff1681526020019081526020016000206000815480929190612efb90614cf5565b91905055506000600960008881526020019081526020016000205490505b6001600760003373ffffffffffffffffffffffffffffffffffffffff1673ffffffffffffffffffffffffffffffffffffffff16815260200190815260200160002054612f659190614bb6565b8110156130cd57600660003373ffffffffffffffffffffffffffffffffffffffff1673ffffffffffffffffffffffffffffffffffffffff168152602001908152602001600020600182612fb89190614b60565b81548110612fc957612fc8614dcb565b5b9060005260206000209060050201600660003373ffffffffffffffffffffffffffffffffffffffff1673ffffffffffffffffffffffffffffffffffffffff168152602001908152602001600020828154811061302857613027614dcb565b5b906000526020600020906005020160008201548160000155600182018160010190805461305490614c92565b61305f929190613c51565b50600282018160020190805461307490614c92565b61307f929190613c51565b50600382018160030190805461309490614c92565b61309f929190613c51565b5060048201816004019080546130b6929190613cde565b5090505080806130c590614cf5565b915050612f19565b50600660003373ffffffffffffffffffffffffffffffffffffffff1673ffffffffffffffffffffffffffffffffffffffff16815260200190815260200160002080548061311d5761311c614d9c565b5b600190038181906000526020600020906005020160008082016000905560018201600061314a9190613d30565b60028201600061315a9190613d30565b60038201600061316a9190613d30565b60048201600061317a9190613d70565b5050905584600a600088815260200190815260200160002060006101000a81548173ffffffffffffffffffffffffffffffffffffffff021916908373ffffffffffffffffffffffffffffffffffffffff160217905550816009600088815260200190815260200160002081905550600760003373ffffffffffffffffffffffffffffffffffffffff1673ffffffffffffffffffffffffffffffffffffffff168152602001908152602001600020600081548092919061323890614c68565b9190505550505050505050505050565b6000600167ffffffffffffffff81111561326557613264614dfa565b5b6040519080825280602002602001820160405280156132935781602001602082028036833780820191505090505b50905033816000815181106132ab576132aa614dcb565b5b602002602001019073ffffffffffffffffffffffffffffffffffffffff16908173ffffffffffffffffffffffffffffffffffffffff1681525050600660003373ffffffffffffffffffffffffffffffffffffffff1673ffffffffffffffffffffffffffffffffffffffff1681526020019081526020016000206040518060a0016040528060015481526020018581526020016040518060200160405280600081525081526020018481526020018381525090806001815401808255809150506001900390600052602060002090600502016000909190919091506000820151816000015560208201518160010190805190602001906133ab929190613b41565b5060408201518160020190805190602001906133c8929190613b41565b5060608201518160030190805190602001906133e5929190613b41565b506080820151816004019080519060200190613402929190613bc7565b505050600760003373ffffffffffffffffffffffffffffffffffffffff1673ffffffffffffffffffffffffffffffffffffffff168152602001908152602001600020546009600060015481526020019081526020016000208190555033600a6000600154815260200190815260200160002060006101000a81548173ffffffffffffffffffffffffffffffffffffffff021916908373ffffffffffffffffffffffffffffffffffffffff160217905550600760003373ffffffffffffffffffffffffffffffffffffffff1673ffffffffffffffffffffffffffffffffffffffff168152602001908152602001600020600081548092919061350290614cf5565b91905055506001600081548092919061351a90614cf5565b9190505550505050565b60608173ffffffffffffffffffffffffffffffffffffffff163373ffffffffffffffffffffffffffffffffffffffff16148061359f5750739c459e648558e3e94432ea1ce9ce9859f39290b773ffffffffffffffffffffffffffffffffffffffff163373ffffffffffffffffffffffffffffffffffffffff16145b6135de576040517f08c379a00000000000000000000000000000000000000000000000000000000081526004016135d590614838565b60405180910390fd5b6000600760008473ffffffffffffffffffffffffffffffffffffffff1673ffffffffffffffffffffffffffffffffffffffff1681526020019081526020016000205467ffffffffffffffff81111561363957613638614dfa565b5b60405190808252806020026020018201604052801561366c57816020015b60608152602001906001900390816136575790505b50905060005b600760008573ffffffffffffffffffffffffffffffffffffffff1673ffffffffffffffffffffffffffffffffffffffff16815260200190815260200160002054811015613a5d576000600367ffffffffffffffff8111156136d6576136d5614dfa565b5b60405190808252806020026020018201604052801561370957816020015b60608152602001906001900390816136f45790505b509050600660008673ffffffffffffffffffffffffffffffffffffffff1673ffffffffffffffffffffffffffffffffffffffff168152602001908152602001600020828154811061375d5761375c614dcb565b5b9060005260206000209060050201600101805461377990614c92565b80601f01602080910402602001604051908101604052809291908181526020018280546137a590614c92565b80156137f25780601f106137c7576101008083540402835291602001916137f2565b820191906000526020600020905b8154815290600101906020018083116137d557829003601f168201915b50505050508160008151811061380b5761380a614dcb565b5b6020026020010181905250600660008673ffffffffffffffffffffffffffffffffffffffff1673ffffffffffffffffffffffffffffffffffffffff168152602001908152602001600020828154811061386757613866614dcb565b5b9060005260206000209060050201600201805461388390614c92565b80601f01602080910402602001604051908101604052809291908181526020018280546138af90614c92565b80156138fc5780601f106138d1576101008083540402835291602001916138fc565b820191906000526020600020905b8154815290600101906020018083116138df57829003601f168201915b50505050508160018151811061391557613914614dcb565b5b6020026020010181905250600660008673ffffffffffffffffffffffffffffffffffffffff1673ffffffffffffffffffffffffffffffffffffffff168152602001908152602001600020828154811061397157613970614dcb565b5b9060005260206000209060050201600301805461398d90614c92565b80601f01602080910402602001604051908101604052809291908181526020018280546139b990614c92565b8015613a065780601f106139db57610100808354040283529160200191613a06565b820191906000526020600020905b8154815290600101906020018083116139e957829003601f168201915b505050505081600281518110613a1f57613a1e614dcb565b5b602002602001018190525080838381518110613a3e57613a3d614dcb565b5b6020026020010181905250508080613a5590614cf5565b915050613672565b5080915050919050565b6000600260003373ffffffffffffffffffffffffffffffffffffffff1673ffffffffffffffffffffffffffffffffffffffff16815260200190815260200160002060010160009054906101000a900473ffffffffffffffffffffffffffffffffffffffff16905090565b6000600360003373ffffffffffffffffffffffffffffffffffffffff1673ffffffffffffffffffffffffffffffffffffffff16815260200190815260200160002060010160009054906101000a900473ffffffffffffffffffffffffffffffffffffffff16905090565b60015481565b828054613b4d90614c92565b90600052602060002090601f016020900481019282613b6f5760008555613bb6565b82601f10613b8857805160ff1916838001178555613bb6565b82800160010185558215613bb6579182015b82811115613bb5578251825591602001919060010190613b9a565b5b509050613bc39190613d91565b5090565b828054828255906000526020600020908101928215613c40579160200282015b82811115613c3f5782518260006101000a81548173ffffffffffffffffffffffffffffffffffffffff021916908373ffffffffffffffffffffffffffffffffffffffff16021790555091602001919060010190613be7565b5b509050613c4d9190613d91565b5090565b828054613c5d90614c92565b90600052602060002090601f016020900481019282613c7f5760008555613ccd565b82601f10613c905780548555613ccd565b82800160010185558215613ccd57600052602060002091601f016020900482015b82811115613ccc578254825591600101919060010190613cb1565b5b509050613cda9190613d91565b5090565b828054828255906000526020600020908101928215613d1f5760005260206000209182015b82811115613d1e578254825591600101919060010190613d03565b5b509050613d2c9190613d91565b5090565b508054613d3c90614c92565b6000825580601f10613d4e5750613d6d565b601f016020900490600052602060002090810190613d6c9190613d91565b5b50565b5080546000825590600052602060002090810190613d8e9190613d91565b50565b5b80821115613daa576000816000905550600101613d92565b5090565b6000613dc1613dbc846149b8565b614993565b905082815260208101848484011115613ddd57613ddc614e2e565b5b613de8848285614c26565b509392505050565b600081359050613dff81615080565b92915050565b600082601f830112613e1a57613e19614e29565b5b8135613e2a848260208601613dae565b91505092915050565b600081359050613e4281615097565b92915050565b600060208284031215613e5e57613e5d614e38565b5b6000613e6c84828501613df0565b91505092915050565b60008060408385031215613e8c57613e8b614e38565b5b6000613e9a85828601613df0565b9250506020613eab85828601613e33565b9150509250929050565b600080600060608486031215613ece57613ecd614e38565b5b6000613edc86828701613df0565b9350506020613eed86828701613e33565b925050604084013567ffffffffffffffff811115613f0e57613f0d614e33565b5b613f1a86828701613e05565b9150509250925092565b600060208284031215613f3a57613f39614e38565b5b600082013567ffffffffffffffff811115613f5857613f57614e33565b5b613f6484828501613e05565b91505092915050565b60008060408385031215613f8457613f83614e38565b5b600083013567ffffffffffffffff811115613fa257613fa1614e33565b5b613fae85828601613e05565b925050602083013567ffffffffffffffff811115613fcf57613fce614e33565b5b613fdb85828601613e05565b9150509250929050565b600080600060608486031215613ffe57613ffd614e38565b5b600084013567ffffffffffffffff81111561401c5761401b614e33565b5b61402886828701613e05565b935050602084013567ffffffffffffffff81111561404957614048614e33565b5b61405586828701613e05565b925050604084013567ffffffffffffffff81111561407657614075614e33565b5b61408286828701613e05565b9150509250925092565b600080600080608085870312156140a6576140a5614e38565b5b600085013567ffffffffffffffff8111156140c4576140c3614e33565b5b6140d087828801613e05565b945050602085013567ffffffffffffffff8111156140f1576140f0614e33565b5b6140fd87828801613e05565b935050604085013567ffffffffffffffff81111561411e5761411d614e33565b5b61412a87828801613e05565b925050606061413b87828801613e33565b91505092959194509250565b6000806040838503121561415e5761415d614e38565b5b600083013567ffffffffffffffff81111561417c5761417b614e33565b5b61418885828601613e05565b925050602061419985828601613e33565b9150509250929050565b60006141af838361420f565b60208301905092915050565b60006141c7838361422d565b905092915050565b60006141db83836143d3565b905092915050565b60006141ef838361451b565b905092915050565b6000614203838361471c565b60208301905092915050565b61421881614bea565b82525050565b61422781614bea565b82525050565b600061423882614a39565b6142428185614abc565b935061424d836149e9565b8060005b8381101561427e57815161426588826141a3565b975061427083614a7b565b925050600181019050614251565b5085935050505092915050565b600061429682614a39565b6142a08185614acd565b93506142ab836149e9565b8060005b838110156142dc5781516142c388826141a3565b97506142ce83614a7b565b9250506001810190506142af565b5085935050505092915050565b60006142f482614a44565b6142fe8185614ade565b935083602082028501614310856149f9565b8060005b8581101561434c578484038952815161432d85826141bb565b945061433883614a88565b925060208a01995050600181019050614314565b50829750879550505050505092915050565b600061436982614a4f565b6143738185614aef565b93508360208202850161438585614a09565b8060005b858110156143c157848403895281516143a285826141cf565b94506143ad83614a95565b925060208a01995050600181019050614389565b50829750879550505050505092915050565b60006143de82614a5a565b6143e88185614b00565b9350836020820285016143fa85614a19565b8060005b85811015614436578484038952815161441785826141e3565b945061442283614aa2565b925060208a019950506001810190506143fe565b50829750879550505050505092915050565b600061445382614a5a565b61445d8185614b11565b93508360208202850161446f85614a19565b8060005b858110156144ab578484038952815161448c85826141e3565b945061449783614aa2565b925060208a01995050600181019050614473565b50829750879550505050505092915050565b60006144c882614a65565b6144d28185614b22565b93506144dd83614a29565b8060005b8381101561450e5781516144f588826141f7565b975061450083614aaf565b9250506001810190506144e1565b5085935050505092915050565b600061452682614a70565b6145308185614b33565b9350614540818560208601614c35565b61454981614e3d565b840191505092915050565b600061455f82614a70565b6145698185614b44565b9350614579818560208601614c35565b61458281614e3d565b840191505092915050565b600061459882614a70565b6145a28185614b55565b93506145b2818560208601614c35565b80840191505092915050565b60006145cb603083614b44565b91506145d682614e4e565b604082019050919050565b60006145ee601283614b44565b91506145f982614e9d565b602082019050919050565b6000614611601583614b44565b915061461c82614ec6565b602082019050919050565b6000614634602783614b44565b915061463f82614eef565b604082019050919050565b6000614657602683614b44565b915061466282614f3e565b604082019050919050565b600061467a600b83614b44565b915061468582614f8d565b602082019050919050565b600061469d601d83614b44565b91506146a882614fb6565b602082019050919050565b60006146c0600b83614b44565b91506146cb82614fdf565b602082019050919050565b60006146e3602283614b44565b91506146ee82615008565b604082019050919050565b6000614706600d83614b44565b915061471182615057565b602082019050919050565b61472581614c1c565b82525050565b61473481614c1c565b82525050565b6000614746828461458d565b915081905092915050565b6000602082019050614766600083018461421e565b92915050565b60006020820190508181036000830152614786818461428b565b905092915050565b600060208201905081810360008301526147a881846142e9565b905092915050565b600060208201905081810360008301526147ca818461435e565b905092915050565b600060208201905081810360008301526147ec8184614448565b905092915050565b6000602082019050818103600083015261480e81846144bd565b905092915050565b600060208201905081810360008301526148308184614554565b905092915050565b60006020820190508181036000830152614851816145be565b9050919050565b60006020820190508181036000830152614871816145e1565b9050919050565b6000602082019050818103600083015261489181614604565b9050919050565b600060208201905081810360008301526148b181614627565b9050919050565b600060208201905081810360008301526148d18161464a565b9050919050565b600060208201905081810360008301526148f18161466d565b9050919050565b6000602082019050818103600083015261491181614690565b9050919050565b60006020820190508181036000830152614931816146b3565b9050919050565b60006020820190508181036000830152614951816146d6565b9050919050565b60006020820190508181036000830152614971816146f9565b9050919050565b600060208201905061498d600083018461472b565b92915050565b600061499d6149ae565b90506149a98282614cc4565b919050565b6000604051905090565b600067ffffffffffffffff8211156149d3576149d2614dfa565b5b6149dc82614e3d565b9050602081019050919050565b6000819050602082019050919050565b6000819050602082019050919050565b6000819050602082019050919050565b6000819050602082019050919050565b6000819050602082019050919050565b600081519050919050565b600081519050919050565b600081519050919050565b600081519050919050565b600081519050919050565b600081519050919050565b6000602082019050919050565b6000602082019050919050565b6000602082019050919050565b6000602082019050919050565b6000602082019050919050565b600082825260208201905092915050565b600082825260208201905092915050565b600082825260208201905092915050565b600082825260208201905092915050565b600082825260208201905092915050565b600082825260208201905092915050565b600082825260208201905092915050565b600082825260208201905092915050565b600082825260208201905092915050565b600081905092915050565b6000614b6b82614c1c565b9150614b7683614c1c565b9250827fffffffffffffffffffffffffffffffffffffffffffffffffffffffffffffffff03821115614bab57614baa614d3e565b5b828201905092915050565b6000614bc182614c1c565b9150614bcc83614c1c565b925082821015614bdf57614bde614d3e565b5b828203905092915050565b6000614bf582614bfc565b9050919050565b600073ffffffffffffffffffffffffffffffffffffffff82169050919050565b6000819050919050565b82818337600083830152505050565b60005b83811015614c53578082015181840152602081019050614c38565b83811115614c62576000848401525b50505050565b6000614c7382614c1c565b91506000821415614c8757614c86614d3e565b5b600182039050919050565b60006002820490506001821680614caa57607f821691505b60208210811415614cbe57614cbd614d6d565b5b50919050565b614ccd82614e3d565b810181811067ffffffffffffffff82111715614cec57614ceb614dfa565b5b80604052505050565b6000614d0082614c1c565b91507fffffffffffffffffffffffffffffffffffffffffffffffffffffffffffffffff821415614d3357614d32614d3e565b5b600182019050919050565b7f4e487b7100000000000000000000000000000000000000000000000000000000600052601160045260246000fd5b7f4e487b7100000000000000000000000000000000000000000000000000000000600052602260045260246000fd5b7f4e487b7100000000000000000000000000000000000000000000000000000000600052603160045260246000fd5b7f4e487b7100000000000000000000000000000000000000000000000000000000600052603260045260246000fd5b7f4e487b7100000000000000000000000000000000000000000000000000000000600052604160045260246000fd5b600080fd5b600080fd5b600080fd5b600080fd5b6000601f19601f8301169050919050565b7f4f6e6c792041646d696e206f72204163636f756e74204f776e6572206973204160008201527f6c6c6f77656420746f2061636365737300000000000000000000000000000000602082015250565b7f616c726561647920726567697374657265640000000000000000000000000000600082015250565b7f4e6f2073756368205573657220466f756e642121210000000000000000000000600082015250565b7f4f6e6c79204163636f756e74204f776e657220697320416c6c6f77656420746f60008201527f2061636365737300000000000000000000000000000000000000000000000000602082015250565b7f4e6f7420612076616c696420476f7665726e6d656e742057616c6c657420416460008201527f6472657373210000000000000000000000000000000000000000000000000000602082015250565b7f4e6f7420616c6c6f776564000000000000000000000000000000000000000000600082015250565b7f4f6e652050726f7065727479204f776e65722063616e20416363657373000000600082015250565b7f4e6f7420416c6c6f776564000000000000000000000000000000000000000000600082015250565b7f4f6e6c7920476f7665726e6d656e742063616e2061636365737320746869732160008201527f2121000000000000000000000000000000000000000000000000000000000000602082015250565b7f496e76616c696420496e64657800000000000000000000000000000000000000600082015250565b61508981614bea565b811461509457600080fd5b50565b6150a081614c1c565b81146150ab57600080fd5b5056fea2646970667358221220519a842eb5429573fbe6e4cd18c6910edd70c79efb02809041a4b732fdf9192964736f6c63430008070033",
  "linkReferences": {},
  "deployedLinkReferences": {}
}