{
  "_format": "hh-sol-artifact-1",
  "contractName": "Authentication",
  "sourceName": "contracts/Authentication.sol",
  "abi": [
    {
      "inputs": [],
      "stateMutability": "nonpayable",
      "type": "constructor"
    },
    {
      "inputs": [
        {
          "internalType": "string",
          "name": "pan",
          "type": "string"
        }
      ],
      "name": "accessDocs",
      "outputs": [
        {
          "internalType": "string[]",
          "name": "",
          "type": "string[]"
        }
      ],
      "stateMutability": "view",
      "type": "function"
    },
    {
      "inputs": [
        {
          "internalType": "string",
          "name": "_property_location",
          "type": "string"
        },
        {
          "internalType": "string",
          "name": "_newipfslink",
          "type": "string"
        }
      ],
      "name": "allot_property",
      "outputs": [],
      "stateMutability": "nonpayable",
      "type": "function"
    },
    {
      "inputs": [
        {
          "internalType": "string",
          "name": "pan",
          "type": "string"
        }
      ],
      "name": "checkPANDetails",
      "outputs": [
        {
          "internalType": "string",
          "name": "",
          "type": "string"
        }
      ],
      "stateMutability": "view",
      "type": "function"
    },
    {
      "inputs": [
        {
          "internalType": "address",
          "name": "userAddr",
          "type": "address"
        }
      ],
      "name": "getEmail",
      "outputs": [
        {
          "internalType": "string",
          "name": "",
          "type": "string"
        }
      ],
      "stateMutability": "view",
      "type": "function"
    },
    {
      "inputs": [],
      "name": "getGovAddress",
      "outputs": [
        {
          "internalType": "address",
          "name": "",
          "type": "address"
        }
      ],
      "stateMutability": "view",
      "type": "function"
    },
    {
      "inputs": [
        {
          "internalType": "address",
          "name": "userAddr",
          "type": "address"
        }
      ],
      "name": "getIPFS",
      "outputs": [
        {
          "internalType": "string",
          "name": "",
          "type": "string"
        }
      ],
      "stateMutability": "view",
      "type": "function"
    },
    {
      "inputs": [
        {
          "internalType": "address",
          "name": "userAddr",
          "type": "address"
        }
      ],
      "name": "getOTP",
      "outputs": [
        {
          "internalType": "uint256",
          "name": "",
          "type": "uint256"
        }
      ],
      "stateMutability": "view",
      "type": "function"
    },
    {
      "inputs": [],
      "name": "getSignatureHash",
      "outputs": [
        {
          "internalType": "string",
          "name": "",
          "type": "string"
        }
      ],
      "stateMutability": "view",
      "type": "function"
    },
    {
      "inputs": [],
      "name": "getSignatureHashGov",
      "outputs": [
        {
          "internalType": "string",
          "name": "",
          "type": "string"
        }
      ],
      "stateMutability": "view",
      "type": "function"
    },
    {
      "inputs": [],
      "name": "getUserAddress",
      "outputs": [
        {
          "internalType": "address",
          "name": "",
          "type": "address"
        }
      ],
      "stateMutability": "view",
      "type": "function"
    },
    {
      "inputs": [
        {
          "internalType": "string",
          "name": "pan",
          "type": "string"
        }
      ],
      "name": "getUserAddressfromPAN",
      "outputs": [
        {
          "internalType": "address",
          "name": "",
          "type": "address"
        }
      ],
      "stateMutability": "view",
      "type": "function"
    },
    {
      "inputs": [
        {
          "internalType": "address",
          "name": "userAddr",
          "type": "address"
        }
      ],
      "name": "get_all_property_details",
      "outputs": [
        {
          "internalType": "string[][]",
          "name": "",
          "type": "string[][]"
        }
      ],
      "stateMutability": "view",
      "type": "function"
    },
    {
      "inputs": [
        {
          "internalType": "address",
          "name": "userAddr",
          "type": "address"
        }
      ],
      "name": "get_all_property_index",
      "outputs": [
        {
          "internalType": "uint256[]",
          "name": "",
          "type": "uint256[]"
        }
      ],
      "stateMutability": "view",
      "type": "function"
    },
    {
      "inputs": [
        {
          "internalType": "address",
          "name": "userAddr",
          "type": "address"
        }
      ],
      "name": "get_all_property_owners_addresses",
      "outputs": [
        {
          "internalType": "address[][]",
          "name": "",
          "type": "address[][]"
        }
      ],
      "stateMutability": "view",
      "type": "function"
    },
    {
      "inputs": [
        {
          "internalType": "address",
          "name": "userAddr",
          "type": "address"
        }
      ],
      "name": "get_current_property_index",
      "outputs": [
        {
          "internalType": "uint256",
          "name": "",
          "type": "uint256"
        }
      ],
      "stateMutability": "view",
      "type": "function"
    },
    {
      "inputs": [
        {
          "internalType": "address",
          "name": "userAddr",
          "type": "address"
        },
        {
          "internalType": "uint256",
          "name": "index",
          "type": "uint256"
        }
      ],
      "name": "get_property_details",
      "outputs": [
        {
          "internalType": "string[]",
          "name": "",
          "type": "string[]"
        }
      ],
      "stateMutability": "view",
      "type": "function"
    },
    {
      "inputs": [
        {
          "internalType": "address",
          "name": "userAddr",
          "type": "address"
        },
        {
          "internalType": "uint256",
          "name": "index",
          "type": "uint256"
        }
      ],
      "name": "get_property_owners_addresses",
      "outputs": [
        {
          "internalType": "address[]",
          "name": "",
          "type": "address[]"
        }
      ],
      "stateMutability": "view",
      "type": "function"
    },
    {
      "inputs": [],
      "name": "nbOfUsers",
      "outputs": [
        {
          "internalType": "uint256",
          "name": "",
          "type": "uint256"
        }
      ],
      "stateMutability": "view",
      "type": "function"
    },
    {
      "inputs": [],
      "name": "propertyIndex",
      "outputs": [
        {
          "internalType": "uint256",
          "name": "",
          "type": "uint256"
        }
      ],
      "stateMutability": "view",
      "type": "function"
    },
    {
      "inputs": [
        {
          "internalType": "string",
          "name": "_signature",
          "type": "string"
        },
        {
          "internalType": "string",
          "name": "pan",
          "type": "string"
        },
        {
          "internalType": "string",
          "name": "email",
          "type": "string"
        }
      ],
      "name": "register",
      "outputs": [],
      "stateMutability": "nonpayable",
      "type": "function"
    },
    {
      "inputs": [
        {
          "internalType": "string",
          "name": "propertyDesc",
          "type": "string"
        },
        {
          "internalType": "string",
          "name": "oldLink",
          "type": "string"
        },
        {
          "internalType": "string",
          "name": "newLink",
          "type": "string"
        }
      ],
      "name": "registerDocs",
      "outputs": [],
      "stateMutability": "nonpayable",
      "type": "function"
    },
    {
      "inputs": [
        {
          "internalType": "string",
          "name": "_signature",
          "type": "string"
        }
      ],
      "name": "registerGov",
      "outputs": [],
      "stateMutability": "nonpayable",
      "type": "function"
    },
    {
      "inputs": [
        {
          "internalType": "string",
          "name": "_property_location",
          "type": "string"
        },
        {
          "internalType": "string",
          "name": "panNumber",
          "type": "string"
        },
        {
          "internalType": "string",
          "name": "_newipfslink",
          "type": "string"
        },
        {
          "internalType": "uint256",
          "name": "index",
          "type": "uint256"
        }
      ],
      "name": "sell_property",
      "outputs": [],
      "stateMutability": "nonpayable",
      "type": "function"
    },
    {
      "inputs": [
        {
          "internalType": "address",
          "name": "userAddr",
          "type": "address"
        },
        {
          "internalType": "string",
          "name": "x",
          "type": "string"
        }
      ],
      "name": "setIPFS",
      "outputs": [],
      "stateMutability": "nonpayable",
      "type": "function"
    },
    {
      "inputs": [
        {
          "internalType": "string",
          "name": "pan",
          "type": "string"
        },
        {
          "internalType": "uint256",
          "name": "otp",
          "type": "uint256"
        }
      ],
      "name": "setOTP",
      "outputs": [],
      "stateMutability": "nonpayable",
      "type": "function"
    },
    {
      "inputs": [
        {
          "internalType": "address",
          "name": "userAddr",
          "type": "address"
        },
        {
          "internalType": "uint256",
          "name": "index",
          "type": "uint256"
        }
      ],
      "name": "set_current_property_index",
      "outputs": [],
      "stateMutability": "nonpayable",
      "type": "function"
    }
  ],
  "bytecode": "0x608060405234801561001057600080fd5b50600080819055506000600181905550614ec28061002f6000396000f3fe608060405234801561001057600080fd5b506004361061018e5760003560e01c80639bca9f1a116100de578063d15d7daa11610097578063ebc3eee811610071578063ebc3eee8146104f1578063eef8fff11461050f578063ef4a63b81461052b578063f56720b5146105495761018e565b8063d15d7daa14610489578063daa88a41146104a5578063dd66f08c146104c15761018e565b80639bca9f1a146103b5578063b944dc34146103e5578063c127ae4114610401578063c2a841791461041f578063c2c3e5661461044f578063c2ea2a8a1461046d5761018e565b80634fa7353c1161014b57806374efaa611161012557806374efaa61146103095780637be6a23b146103395780638ae8f875146103695780639400f3b4146103995761018e565b80634fa7353c1461028d578063614ed19e146102bd578063636d757d146102d95761018e565b80630896ee4e1461019357806312679323146101c357806331b2a8c2146101e157806333f235c1146102115780633fad184b146102415780634cd08d0314610271575b600080fd5b6101ad60048036038101906101a89190613c9c565b610567565b6040516101ba9190614657565b60405180910390f35b6101cb6106f0565b6040516101d891906147b9565b60405180910390f35b6101fb60048036038101906101f69190613d65565b6106f6565b6040516102089190614657565b60405180910390f35b61022b60048036038101906102269190613d65565b6107e6565b6040516102389190614613565b60405180910390f35b61025b60048036038101906102569190613d25565b610bc8565b6040516102689190614613565b60405180910390f35b61028b60048036038101906102869190613e26565b6110d7565b005b6102a760048036038101906102a29190613c9c565b6113a7565b6040516102b49190614657565b60405180910390f35b6102d760048036038101906102d29190613f88565b611595565b005b6102f360048036038101906102ee9190613d65565b61169d565b6040516103009190614592565b60405180910390f35b610323600480360381019061031e9190613c9c565b611767565b60405161033091906147b9565b60405180910390f35b610353600480360381019061034e9190613c9c565b61186a565b60405161036091906147b9565b60405180910390f35b610383600480360381019061037e9190613c9c565b61196b565b6040516103909190614635565b60405180910390f35b6103b360048036038101906103ae9190613d65565b611b9a565b005b6103cf60048036038101906103ca9190613d25565b611dc8565b6040516103dc91906145ad565b60405180910390f35b6103ff60048036038101906103fa9190613e26565b612025565b005b6104096121ff565b6040516104169190614657565b60405180910390f35b61043960048036038101906104349190613c9c565b6123a1565b60405161044691906145cf565b60405180910390f35b610457612658565b6040516104649190614657565b60405180910390f35b61048760048036038101906104829190613ecd565b6127fa565b005b6104a3600480360381019061049e9190613dae565b612eb3565b005b6104bf60048036038101906104ba9190613d25565b61318f565b005b6104db60048036038101906104d69190613c9c565b613345565b6040516104e891906145f1565b60405180910390f35b6104f9613888565b6040516105069190614592565b60405180910390f35b61052960048036038101906105249190613cc9565b6138f2565b005b610533613a04565b6040516105409190614592565b60405180910390f35b610551613a6e565b60405161055e91906147b9565b60405180910390f35b60608173ffffffffffffffffffffffffffffffffffffffff163373ffffffffffffffffffffffffffffffffffffffff1614806105e25750739c459e648558e3e94432ea1ce9ce9859f39290b773ffffffffffffffffffffffffffffffffffffffff163373ffffffffffffffffffffffffffffffffffffffff16145b610621576040517f08c379a0000000000000000000000000000000000000000000000000000000008152600401610618906146d9565b60405180910390fd5b600b60008373ffffffffffffffffffffffffffffffffffffffff1673ffffffffffffffffffffffffffffffffffffffff168152602001908152602001600020805461066b90614a9f565b80601f016020809104026020016040519081016040528092919081815260200182805461069790614a9f565b80156106e45780601f106106b9576101008083540402835291602001916106e4565b820191906000526020600020905b8154815290600101906020018083116106c757829003601f168201915b50505050509050919050565b60005481565b6060600073ffffffffffffffffffffffffffffffffffffffff16600483604051610720919061457b565b908152602001604051809103902060009054906101000a900473ffffffffffffffffffffffffffffffffffffffff1673ffffffffffffffffffffffffffffffffffffffff1614156107a8576040518060400160405280600a81526020017f4e6f74204578697374730000000000000000000000000000000000000000000081525090506107e1565b6040518060400160405280600681526020017f457869737473000000000000000000000000000000000000000000000000000081525090505b919050565b6060739c459e648558e3e94432ea1ce9ce9859f39290b773ffffffffffffffffffffffffffffffffffffffff163373ffffffffffffffffffffffffffffffffffffffff161461086a576040517f08c379a000000000000000000000000000000000000000000000000000000000815260040161086190614779565b60405180910390fd5b6000600367ffffffffffffffff81111561088757610886614bd8565b5b6040519080825280602002602001820160405280156108ba57816020015b60608152602001906001900390816108a55790505b50905060006004846040516108cf919061457b565b908152602001604051809103902060009054906101000a900473ffffffffffffffffffffffffffffffffffffffff169050600560008273ffffffffffffffffffffffffffffffffffffffff1673ffffffffffffffffffffffffffffffffffffffff168152602001908152602001600020600001805461094d90614a9f565b80601f016020809104026020016040519081016040528092919081815260200182805461097990614a9f565b80156109c65780601f1061099b576101008083540402835291602001916109c6565b820191906000526020600020905b8154815290600101906020018083116109a957829003601f168201915b5050505050826000815181106109df576109de614ba9565b5b6020026020010181905250600560008273ffffffffffffffffffffffffffffffffffffffff1673ffffffffffffffffffffffffffffffffffffffff1681526020019081526020016000206001018054610a3790614a9f565b80601f0160208091040260200160405190810160405280929190818152602001828054610a6390614a9f565b8015610ab05780601f10610a8557610100808354040283529160200191610ab0565b820191906000526020600020905b815481529060010190602001808311610a9357829003601f168201915b505050505082600181518110610ac957610ac8614ba9565b5b6020026020010181905250600560008273ffffffffffffffffffffffffffffffffffffffff1673ffffffffffffffffffffffffffffffffffffffff1681526020019081526020016000206002018054610b2190614a9f565b80601f0160208091040260200160405190810160405280929190818152602001828054610b4d90614a9f565b8015610b9a5780601f10610b6f57610100808354040283529160200191610b9a565b820191906000526020600020905b815481529060010190602001808311610b7d57829003601f168201915b505050505082600281518110610bb357610bb2614ba9565b5b60200260200101819052508192505050919050565b60608273ffffffffffffffffffffffffffffffffffffffff163373ffffffffffffffffffffffffffffffffffffffff161480610c435750739c459e648558e3e94432ea1ce9ce9859f39290b773ffffffffffffffffffffffffffffffffffffffff163373ffffffffffffffffffffffffffffffffffffffff16145b610c82576040517f08c379a0000000000000000000000000000000000000000000000000000000008152600401610c7990614679565b60405180910390fd5b8273ffffffffffffffffffffffffffffffffffffffff16600a600084815260200190815260200160002060009054906101000a900473ffffffffffffffffffffffffffffffffffffffff1673ffffffffffffffffffffffffffffffffffffffff1614610d23576040517f08c379a0000000000000000000000000000000000000000000000000000000008152600401610d1a90614799565b60405180910390fd5b6000600367ffffffffffffffff811115610d4057610d3f614bd8565b5b604051908082528060200260200182016040528015610d7357816020015b6060815260200190600190039081610d5e5790505b509050600660008573ffffffffffffffffffffffffffffffffffffffff1673ffffffffffffffffffffffffffffffffffffffff168152602001908152602001600020600960008581526020019081526020016000205481548110610dda57610dd9614ba9565b5b90600052602060002090600502016001018054610df690614a9f565b80601f0160208091040260200160405190810160405280929190818152602001828054610e2290614a9f565b8015610e6f5780601f10610e4457610100808354040283529160200191610e6f565b820191906000526020600020905b815481529060010190602001808311610e5257829003601f168201915b505050505081600081518110610e8857610e87614ba9565b5b6020026020010181905250600660008573ffffffffffffffffffffffffffffffffffffffff1673ffffffffffffffffffffffffffffffffffffffff168152602001908152602001600020600960008581526020019081526020016000205481548110610ef757610ef6614ba9565b5b90600052602060002090600502016002018054610f1390614a9f565b80601f0160208091040260200160405190810160405280929190818152602001828054610f3f90614a9f565b8015610f8c5780601f10610f6157610100808354040283529160200191610f8c565b820191906000526020600020905b815481529060010190602001808311610f6f57829003601f168201915b505050505081600181518110610fa557610fa4614ba9565b5b6020026020010181905250600660008573ffffffffffffffffffffffffffffffffffffffff1673ffffffffffffffffffffffffffffffffffffffff16815260200190815260200160002060096000858152602001908152602001600020548154811061101457611013614ba9565b5b9060005260206000209060050201600301805461103090614a9f565b80601f016020809104026020016040519081016040528092919081815260200182805461105c90614a9f565b80156110a95780601f1061107e576101008083540402835291602001916110a9565b820191906000526020600020905b81548152906001019060200180831161108c57829003601f168201915b5050505050816002815181106110c2576110c1614ba9565b5b60200260200101819052508091505092915050565b600073ffffffffffffffffffffffffffffffffffffffff16600260003373ffffffffffffffffffffffffffffffffffffffff1673ffffffffffffffffffffffffffffffffffffffff16815260200190815260200160002060010160009054906101000a900473ffffffffffffffffffffffffffffffffffffffff1673ffffffffffffffffffffffffffffffffffffffff16146111a8576040517f08c379a000000000000000000000000000000000000000000000000000000000815260040161119f90614699565b60405180910390fd5b82600260003373ffffffffffffffffffffffffffffffffffffffff1673ffffffffffffffffffffffffffffffffffffffff16815260200190815260200160002060000190805190602001906111fe929190613a74565b5033600260003373ffffffffffffffffffffffffffffffffffffffff1673ffffffffffffffffffffffffffffffffffffffff16815260200190815260200160002060010160006101000a81548173ffffffffffffffffffffffffffffffffffffffff021916908373ffffffffffffffffffffffffffffffffffffffff16021790555081600260003373ffffffffffffffffffffffffffffffffffffffff1673ffffffffffffffffffffffffffffffffffffffff16815260200190815260200160002060020190805190602001906112d6929190613a74565b5080600260003373ffffffffffffffffffffffffffffffffffffffff1673ffffffffffffffffffffffffffffffffffffffff168152602001908152602001600020600301908051906020019061132d929190613a74565b503360048360405161133f919061457b565b908152602001604051809103902060006101000a81548173ffffffffffffffffffffffffffffffffffffffff021916908373ffffffffffffffffffffffffffffffffffffffff16021790555060008081548092919061139d90614b02565b9190505550505050565b6060600260003373ffffffffffffffffffffffffffffffffffffffff1673ffffffffffffffffffffffffffffffffffffffff16815260200190815260200160002060010160009054906101000a900473ffffffffffffffffffffffffffffffffffffffff1673ffffffffffffffffffffffffffffffffffffffff163373ffffffffffffffffffffffffffffffffffffffff1614806114845750739c459e648558e3e94432ea1ce9ce9859f39290b773ffffffffffffffffffffffffffffffffffffffff163373ffffffffffffffffffffffffffffffffffffffff16145b6114c3576040517f08c379a00000000000000000000000000000000000000000000000000000000081526004016114ba90614719565b60405180910390fd5b600260008373ffffffffffffffffffffffffffffffffffffffff1673ffffffffffffffffffffffffffffffffffffffff168152602001908152602001600020600301805461151090614a9f565b80601f016020809104026020016040519081016040528092919081815260200182805461153c90614a9f565b80156115895780601f1061155e57610100808354040283529160200191611589565b820191906000526020600020905b81548152906001019060200180831161156c57829003601f168201915b50505050509050919050565b739c459e648558e3e94432ea1ce9ce9859f39290b773ffffffffffffffffffffffffffffffffffffffff163373ffffffffffffffffffffffffffffffffffffffff1614611617576040517f08c379a000000000000000000000000000000000000000000000000000000000815260040161160e90614759565b60405180910390fd5b80600c600060048560405161162c919061457b565b908152602001604051809103902060009054906101000a900473ffffffffffffffffffffffffffffffffffffffff1673ffffffffffffffffffffffffffffffffffffffff1673ffffffffffffffffffffffffffffffffffffffff168152602001908152602001600020819055505050565b6000739c459e648558e3e94432ea1ce9ce9859f39290b773ffffffffffffffffffffffffffffffffffffffff163373ffffffffffffffffffffffffffffffffffffffff1614611721576040517f08c379a000000000000000000000000000000000000000000000000000000000815260040161171890614759565b60405180910390fd5b600482604051611731919061457b565b908152602001604051809103902060009054906101000a900473ffffffffffffffffffffffffffffffffffffffff169050919050565b60008173ffffffffffffffffffffffffffffffffffffffff163373ffffffffffffffffffffffffffffffffffffffff161480156117e45750739c459e648558e3e94432ea1ce9ce9859f39290b773ffffffffffffffffffffffffffffffffffffffff163373ffffffffffffffffffffffffffffffffffffffff1614155b611823576040517f08c379a000000000000000000000000000000000000000000000000000000000815260040161181a90614759565b60405180910390fd5b600c60008373ffffffffffffffffffffffffffffffffffffffff1673ffffffffffffffffffffffffffffffffffffffff168152602001908152602001600020549050919050565b60008173ffffffffffffffffffffffffffffffffffffffff163373ffffffffffffffffffffffffffffffffffffffff1614806118e55750739c459e648558e3e94432ea1ce9ce9859f39290b773ffffffffffffffffffffffffffffffffffffffff163373ffffffffffffffffffffffffffffffffffffffff16145b611924576040517f08c379a000000000000000000000000000000000000000000000000000000000815260040161191b90614679565b60405180910390fd5b600860008373ffffffffffffffffffffffffffffffffffffffff1673ffffffffffffffffffffffffffffffffffffffff168152602001908152602001600020549050919050565b60608173ffffffffffffffffffffffffffffffffffffffff163373ffffffffffffffffffffffffffffffffffffffff1614806119e65750739c459e648558e3e94432ea1ce9ce9859f39290b773ffffffffffffffffffffffffffffffffffffffff163373ffffffffffffffffffffffffffffffffffffffff16145b611a25576040517f08c379a0000000000000000000000000000000000000000000000000000000008152600401611a1c90614679565b60405180910390fd5b6000600760008473ffffffffffffffffffffffffffffffffffffffff1673ffffffffffffffffffffffffffffffffffffffff1681526020019081526020016000205467ffffffffffffffff811115611a8057611a7f614bd8565b5b604051908082528060200260200182016040528015611aae5781602001602082028036833780820191505090505b50905060005b600760008573ffffffffffffffffffffffffffffffffffffffff1673ffffffffffffffffffffffffffffffffffffffff16815260200190815260200160002054811015611b9057600660008573ffffffffffffffffffffffffffffffffffffffff1673ffffffffffffffffffffffffffffffffffffffff1681526020019081526020016000208181548110611b4c57611b4b614ba9565b5b906000526020600020906005020160000154828281518110611b7157611b70614ba9565b5b6020026020010181815250508080611b8890614b02565b915050611ab4565b5080915050919050565b600073ffffffffffffffffffffffffffffffffffffffff16600360003373ffffffffffffffffffffffffffffffffffffffff1673ffffffffffffffffffffffffffffffffffffffff16815260200190815260200160002060010160009054906101000a900473ffffffffffffffffffffffffffffffffffffffff1673ffffffffffffffffffffffffffffffffffffffff1614611c6b576040517f08c379a0000000000000000000000000000000000000000000000000000000008152600401611c6290614699565b60405180910390fd5b739c459e648558e3e94432ea1ce9ce9859f39290b773ffffffffffffffffffffffffffffffffffffffff163373ffffffffffffffffffffffffffffffffffffffff1614611ced576040517f08c379a0000000000000000000000000000000000000000000000000000000008152600401611ce4906146f9565b60405180910390fd5b80600360003373ffffffffffffffffffffffffffffffffffffffff1673ffffffffffffffffffffffffffffffffffffffff1681526020019081526020016000206000019080519060200190611d43929190613a74565b5033600360003373ffffffffffffffffffffffffffffffffffffffff1673ffffffffffffffffffffffffffffffffffffffff16815260200190815260200160002060010160006101000a81548173ffffffffffffffffffffffffffffffffffffffff021916908373ffffffffffffffffffffffffffffffffffffffff16021790555050565b60608273ffffffffffffffffffffffffffffffffffffffff163373ffffffffffffffffffffffffffffffffffffffff161480611e435750739c459e648558e3e94432ea1ce9ce9859f39290b773ffffffffffffffffffffffffffffffffffffffff163373ffffffffffffffffffffffffffffffffffffffff16145b611e82576040517f08c379a0000000000000000000000000000000000000000000000000000000008152600401611e7990614679565b60405180910390fd5b8273ffffffffffffffffffffffffffffffffffffffff16600a600084815260200190815260200160002060009054906101000a900473ffffffffffffffffffffffffffffffffffffffff1673ffffffffffffffffffffffffffffffffffffffff1614611f23576040517f08c379a0000000000000000000000000000000000000000000000000000000008152600401611f1a90614799565b60405180910390fd5b600660008473ffffffffffffffffffffffffffffffffffffffff1673ffffffffffffffffffffffffffffffffffffffff168152602001908152602001600020600960008481526020019081526020016000205481548110611f8757611f86614ba9565b5b906000526020600020906005020160040180548060200260200160405190810160405280929190818152602001828054801561201857602002820191906000526020600020905b8160009054906101000a900473ffffffffffffffffffffffffffffffffffffffff1673ffffffffffffffffffffffffffffffffffffffff1681526020019060010190808311611fce575b5050505050905092915050565b600260003373ffffffffffffffffffffffffffffffffffffffff1673ffffffffffffffffffffffffffffffffffffffff16815260200190815260200160002060010160009054906101000a900473ffffffffffffffffffffffffffffffffffffffff1673ffffffffffffffffffffffffffffffffffffffff163373ffffffffffffffffffffffffffffffffffffffff16146120f5576040517f08c379a00000000000000000000000000000000000000000000000000000000081526004016120ec906146b9565b60405180910390fd5b82600560003373ffffffffffffffffffffffffffffffffffffffff1673ffffffffffffffffffffffffffffffffffffffff168152602001908152602001600020600001908051906020019061214b929190613a74565b5081600560003373ffffffffffffffffffffffffffffffffffffffff1673ffffffffffffffffffffffffffffffffffffffff16815260200190815260200160002060010190805190602001906121a2929190613a74565b5080600560003373ffffffffffffffffffffffffffffffffffffffff1673ffffffffffffffffffffffffffffffffffffffff16815260200190815260200160002060020190805190602001906121f9929190613a74565b50505050565b6060600260003373ffffffffffffffffffffffffffffffffffffffff1673ffffffffffffffffffffffffffffffffffffffff16815260200190815260200160002060010160009054906101000a900473ffffffffffffffffffffffffffffffffffffffff1673ffffffffffffffffffffffffffffffffffffffff163373ffffffffffffffffffffffffffffffffffffffff16146122d1576040517f08c379a00000000000000000000000000000000000000000000000000000000081526004016122c890614719565b60405180910390fd5b600260003373ffffffffffffffffffffffffffffffffffffffff1673ffffffffffffffffffffffffffffffffffffffff168152602001908152602001600020600001805461231e90614a9f565b80601f016020809104026020016040519081016040528092919081815260200182805461234a90614a9f565b80156123975780601f1061236c57610100808354040283529160200191612397565b820191906000526020600020905b81548152906001019060200180831161237a57829003601f168201915b5050505050905090565b60608173ffffffffffffffffffffffffffffffffffffffff163373ffffffffffffffffffffffffffffffffffffffff16148061241c5750739c459e648558e3e94432ea1ce9ce9859f39290b773ffffffffffffffffffffffffffffffffffffffff163373ffffffffffffffffffffffffffffffffffffffff16145b61245b576040517f08c379a000000000000000000000000000000000000000000000000000000000815260040161245290614679565b60405180910390fd5b6000600760008473ffffffffffffffffffffffffffffffffffffffff1673ffffffffffffffffffffffffffffffffffffffff1681526020019081526020016000205467ffffffffffffffff8111156124b6576124b5614bd8565b5b6040519080825280602002602001820160405280156124e957816020015b60608152602001906001900390816124d45790505b50905060005b600760008573ffffffffffffffffffffffffffffffffffffffff1673ffffffffffffffffffffffffffffffffffffffff1681526020019081526020016000205481101561264e57600660008573ffffffffffffffffffffffffffffffffffffffff1673ffffffffffffffffffffffffffffffffffffffff168152602001908152602001600020818154811061258757612586614ba9565b5b906000526020600020906005020160040180548060200260200160405190810160405280929190818152602001828054801561261857602002820191906000526020600020905b8160009054906101000a900473ffffffffffffffffffffffffffffffffffffffff1673ffffffffffffffffffffffffffffffffffffffff16815260200190600101908083116125ce575b50505050508282815181106126305761262f614ba9565b5b6020026020010181905250808061264690614b02565b9150506124ef565b5080915050919050565b6060600360003373ffffffffffffffffffffffffffffffffffffffff1673ffffffffffffffffffffffffffffffffffffffff16815260200190815260200160002060010160009054906101000a900473ffffffffffffffffffffffffffffffffffffffff1673ffffffffffffffffffffffffffffffffffffffff163373ffffffffffffffffffffffffffffffffffffffff161461272a576040517f08c379a000000000000000000000000000000000000000000000000000000000815260040161272190614719565b60405180910390fd5b600360003373ffffffffffffffffffffffffffffffffffffffff1673ffffffffffffffffffffffffffffffffffffffff168152602001908152602001600020600001805461277790614a9f565b80601f01602080910402602001604051908101604052809291908181526020018280546127a390614a9f565b80156127f05780601f106127c5576101008083540402835291602001916127f0565b820191906000526020600020905b8154815290600101906020018083116127d357829003601f168201915b5050505050905090565b600060048460405161280c919061457b565b908152602001604051809103902060009054906101000a900473ffffffffffffffffffffffffffffffffffffffff1690506000600660003373ffffffffffffffffffffffffffffffffffffffff1673ffffffffffffffffffffffffffffffffffffffff1681526020019081526020016000206009600085815260200190815260200160002054815481106128a3576128a2614ba9565b5b906000526020600020906005020160040180549050905060006001826128c991906149a1565b67ffffffffffffffff8111156128e2576128e1614bd8565b5b6040519080825280602002602001820160405280156129105781602001602082028036833780820191505090505b50905060005b82811015612a3057600660003373ffffffffffffffffffffffffffffffffffffffff1673ffffffffffffffffffffffffffffffffffffffff16815260200190815260200160002060096000878152602001908152602001600020548154811061298257612981614ba9565b5b906000526020600020906005020160040181815481106129a5576129a4614ba9565b5b9060005260206000200160009054906101000a900473ffffffffffffffffffffffffffffffffffffffff168282815181106129e3576129e2614ba9565b5b602002602001019073ffffffffffffffffffffffffffffffffffffffff16908173ffffffffffffffffffffffffffffffffffffffff16815250508080612a2890614b02565b915050612916565b5082818381518110612a4557612a44614ba9565b5b602002602001019073ffffffffffffffffffffffffffffffffffffffff16908173ffffffffffffffffffffffffffffffffffffffff16815250506000600660008573ffffffffffffffffffffffffffffffffffffffff1673ffffffffffffffffffffffffffffffffffffffff1681526020019081526020016000208054905090506000600660003373ffffffffffffffffffffffffffffffffffffffff1673ffffffffffffffffffffffffffffffffffffffff168152602001908152602001600020600960008881526020019081526020016000205481548110612b2c57612b2b614ba9565b5b90600052602060002090600502016003018054612b4890614a9f565b80601f0160208091040260200160405190810160405280929190818152602001828054612b7490614a9f565b8015612bc15780601f10612b9657610100808354040283529160200191612bc1565b820191906000526020600020905b815481529060010190602001808311612ba457829003601f168201915b50505050509050600660008673ffffffffffffffffffffffffffffffffffffffff1673ffffffffffffffffffffffffffffffffffffffff1681526020019081526020016000206040518060a001604052808881526020018b8152602001838152602001898152602001858152509080600181540180825580915050600190039060005260206000209060050201600090919091909150600082015181600001556020820151816001019080519060200190612c7d929190613a74565b506040820151816002019080519060200190612c9a929190613a74565b506060820151816003019080519060200190612cb7929190613a74565b506080820151816004019080519060200190612cd4929190613afa565b505050600760008673ffffffffffffffffffffffffffffffffffffffff1673ffffffffffffffffffffffffffffffffffffffff1681526020019081526020016000206000815480929190612d2790614b02565b9190505550600660003373ffffffffffffffffffffffffffffffffffffffff1673ffffffffffffffffffffffffffffffffffffffff168152602001908152602001600020600960008881526020019081526020016000205481548110612d9057612d8f614ba9565b5b9060005260206000209060050201600080820160009055600182016000612db79190613b84565b600282016000612dc79190613b84565b600382016000612dd79190613b84565b600482016000612de79190613bc4565b505084600a600088815260200190815260200160002060006101000a81548173ffffffffffffffffffffffffffffffffffffffff021916908373ffffffffffffffffffffffffffffffffffffffff160217905550816009600088815260200190815260200160002081905550600760003373ffffffffffffffffffffffffffffffffffffffff1673ffffffffffffffffffffffffffffffffffffffff1681526020019081526020016000206000815480929190612ea390614a75565b9190505550505050505050505050565b6000600167ffffffffffffffff811115612ed057612ecf614bd8565b5b604051908082528060200260200182016040528015612efe5781602001602082028036833780820191505090505b5090503381600081518110612f1657612f15614ba9565b5b602002602001019073ffffffffffffffffffffffffffffffffffffffff16908173ffffffffffffffffffffffffffffffffffffffff1681525050600660003373ffffffffffffffffffffffffffffffffffffffff1673ffffffffffffffffffffffffffffffffffffffff1681526020019081526020016000206040518060a001604052806001548152602001858152602001604051806020016040528060008152508152602001848152602001838152509080600181540180825580915050600190039060005260206000209060050201600090919091909150600082015181600001556020820151816001019080519060200190613016929190613a74565b506040820151816002019080519060200190613033929190613a74565b506060820151816003019080519060200190613050929190613a74565b50608082015181600401908051906020019061306d929190613afa565b505050600760003373ffffffffffffffffffffffffffffffffffffffff1673ffffffffffffffffffffffffffffffffffffffff168152602001908152602001600020546009600060015481526020019081526020016000208190555033600a6000600154815260200190815260200160002060006101000a81548173ffffffffffffffffffffffffffffffffffffffff021916908373ffffffffffffffffffffffffffffffffffffffff160217905550600760003373ffffffffffffffffffffffffffffffffffffffff1673ffffffffffffffffffffffffffffffffffffffff168152602001908152602001600020600081548092919061316d90614b02565b91905055506001600081548092919061318590614b02565b9190505550505050565b8173ffffffffffffffffffffffffffffffffffffffff163373ffffffffffffffffffffffffffffffffffffffff1614801561320a5750739c459e648558e3e94432ea1ce9ce9859f39290b773ffffffffffffffffffffffffffffffffffffffff163373ffffffffffffffffffffffffffffffffffffffff1614155b613249576040517f08c379a000000000000000000000000000000000000000000000000000000000815260040161324090614739565b60405180910390fd5b8173ffffffffffffffffffffffffffffffffffffffff16600a600083815260200190815260200160002060009054906101000a900473ffffffffffffffffffffffffffffffffffffffff1673ffffffffffffffffffffffffffffffffffffffff16146132ea576040517f08c379a00000000000000000000000000000000000000000000000000000000081526004016132e190614799565b60405180910390fd5b6009600082815260200190815260200160002054600860008473ffffffffffffffffffffffffffffffffffffffff1673ffffffffffffffffffffffffffffffffffffffff168152602001908152602001600020819055505050565b60608173ffffffffffffffffffffffffffffffffffffffff163373ffffffffffffffffffffffffffffffffffffffff1614806133c05750739c459e648558e3e94432ea1ce9ce9859f39290b773ffffffffffffffffffffffffffffffffffffffff163373ffffffffffffffffffffffffffffffffffffffff16145b6133ff576040517f08c379a00000000000000000000000000000000000000000000000000000000081526004016133f690614679565b60405180910390fd5b6000600760008473ffffffffffffffffffffffffffffffffffffffff1673ffffffffffffffffffffffffffffffffffffffff1681526020019081526020016000205467ffffffffffffffff81111561345a57613459614bd8565b5b60405190808252806020026020018201604052801561348d57816020015b60608152602001906001900390816134785790505b50905060005b600760008573ffffffffffffffffffffffffffffffffffffffff1673ffffffffffffffffffffffffffffffffffffffff1681526020019081526020016000205481101561387e576000600367ffffffffffffffff8111156134f7576134f6614bd8565b5b60405190808252806020026020018201604052801561352a57816020015b60608152602001906001900390816135155790505b509050600660008673ffffffffffffffffffffffffffffffffffffffff1673ffffffffffffffffffffffffffffffffffffffff168152602001908152602001600020828154811061357e5761357d614ba9565b5b9060005260206000209060050201600101805461359a90614a9f565b80601f01602080910402602001604051908101604052809291908181526020018280546135c690614a9f565b80156136135780601f106135e857610100808354040283529160200191613613565b820191906000526020600020905b8154815290600101906020018083116135f657829003601f168201915b50505050508160008151811061362c5761362b614ba9565b5b6020026020010181905250600660008673ffffffffffffffffffffffffffffffffffffffff1673ffffffffffffffffffffffffffffffffffffffff168152602001908152602001600020828154811061368857613687614ba9565b5b906000526020600020906005020160020180546136a490614a9f565b80601f01602080910402602001604051908101604052809291908181526020018280546136d090614a9f565b801561371d5780601f106136f25761010080835404028352916020019161371d565b820191906000526020600020905b81548152906001019060200180831161370057829003601f168201915b50505050508160018151811061373657613735614ba9565b5b6020026020010181905250600660008673ffffffffffffffffffffffffffffffffffffffff1673ffffffffffffffffffffffffffffffffffffffff168152602001908152602001600020828154811061379257613791614ba9565b5b906000526020600020906005020160030180546137ae90614a9f565b80601f01602080910402602001604051908101604052809291908181526020018280546137da90614a9f565b80156138275780601f106137fc57610100808354040283529160200191613827565b820191906000526020600020905b81548152906001019060200180831161380a57829003601f168201915b5050505050816002815181106138405761383f614ba9565b5b60200260200101819052508083838151811061385f5761385e614ba9565b5b602002602001018190525050808061387690614b02565b915050613493565b5080915050919050565b6000600260003373ffffffffffffffffffffffffffffffffffffffff1673ffffffffffffffffffffffffffffffffffffffff16815260200190815260200160002060010160009054906101000a900473ffffffffffffffffffffffffffffffffffffffff16905090565b8173ffffffffffffffffffffffffffffffffffffffff163373ffffffffffffffffffffffffffffffffffffffff1614801561396d5750739c459e648558e3e94432ea1ce9ce9859f39290b773ffffffffffffffffffffffffffffffffffffffff163373ffffffffffffffffffffffffffffffffffffffff1614155b6139ac576040517f08c379a00000000000000000000000000000000000000000000000000000000081526004016139a3906146d9565b60405180910390fd5b80600b60008473ffffffffffffffffffffffffffffffffffffffff1673ffffffffffffffffffffffffffffffffffffffff16815260200190815260200160002090805190602001906139ff929190613a74565b505050565b6000600360003373ffffffffffffffffffffffffffffffffffffffff1673ffffffffffffffffffffffffffffffffffffffff16815260200190815260200160002060010160009054906101000a900473ffffffffffffffffffffffffffffffffffffffff16905090565b60015481565b828054613a8090614a9f565b90600052602060002090601f016020900481019282613aa25760008555613ae9565b82601f10613abb57805160ff1916838001178555613ae9565b82800160010185558215613ae9579182015b82811115613ae8578251825591602001919060010190613acd565b5b509050613af69190613be5565b5090565b828054828255906000526020600020908101928215613b73579160200282015b82811115613b725782518260006101000a81548173ffffffffffffffffffffffffffffffffffffffff021916908373ffffffffffffffffffffffffffffffffffffffff16021790555091602001919060010190613b1a565b5b509050613b809190613be5565b5090565b508054613b9090614a9f565b6000825580601f10613ba25750613bc1565b601f016020900490600052602060002090810190613bc09190613be5565b5b50565b5080546000825590600052602060002090810190613be29190613be5565b50565b5b80821115613bfe576000816000905550600101613be6565b5090565b6000613c15613c10846147f9565b6147d4565b905082815260208101848484011115613c3157613c30614c0c565b5b613c3c848285614a33565b509392505050565b600081359050613c5381614e5e565b92915050565b600082601f830112613c6e57613c6d614c07565b5b8135613c7e848260208601613c02565b91505092915050565b600081359050613c9681614e75565b92915050565b600060208284031215613cb257613cb1614c16565b5b6000613cc084828501613c44565b91505092915050565b60008060408385031215613ce057613cdf614c16565b5b6000613cee85828601613c44565b925050602083013567ffffffffffffffff811115613d0f57613d0e614c11565b5b613d1b85828601613c59565b9150509250929050565b60008060408385031215613d3c57613d3b614c16565b5b6000613d4a85828601613c44565b9250506020613d5b85828601613c87565b9150509250929050565b600060208284031215613d7b57613d7a614c16565b5b600082013567ffffffffffffffff811115613d9957613d98614c11565b5b613da584828501613c59565b91505092915050565b60008060408385031215613dc557613dc4614c16565b5b600083013567ffffffffffffffff811115613de357613de2614c11565b5b613def85828601613c59565b925050602083013567ffffffffffffffff811115613e1057613e0f614c11565b5b613e1c85828601613c59565b9150509250929050565b600080600060608486031215613e3f57613e3e614c16565b5b600084013567ffffffffffffffff811115613e5d57613e5c614c11565b5b613e6986828701613c59565b935050602084013567ffffffffffffffff811115613e8a57613e89614c11565b5b613e9686828701613c59565b925050604084013567ffffffffffffffff811115613eb757613eb6614c11565b5b613ec386828701613c59565b9150509250925092565b60008060008060808587031215613ee757613ee6614c16565b5b600085013567ffffffffffffffff811115613f0557613f04614c11565b5b613f1187828801613c59565b945050602085013567ffffffffffffffff811115613f3257613f31614c11565b5b613f3e87828801613c59565b935050604085013567ffffffffffffffff811115613f5f57613f5e614c11565b5b613f6b87828801613c59565b9250506060613f7c87828801613c87565b91505092959194509250565b60008060408385031215613f9f57613f9e614c16565b5b600083013567ffffffffffffffff811115613fbd57613fbc614c11565b5b613fc985828601613c59565b9250506020613fda85828601613c87565b9150509250929050565b6000613ff08383614050565b60208301905092915050565b6000614008838361406e565b905092915050565b600061401c8383614214565b905092915050565b6000614030838361435c565b905092915050565b6000614044838361455d565b60208301905092915050565b614059816149f7565b82525050565b614068816149f7565b82525050565b60006140798261487a565b61408381856148fd565b935061408e8361482a565b8060005b838110156140bf5781516140a68882613fe4565b97506140b1836148bc565b925050600181019050614092565b5085935050505092915050565b60006140d78261487a565b6140e1818561490e565b93506140ec8361482a565b8060005b8381101561411d5781516141048882613fe4565b975061410f836148bc565b9250506001810190506140f0565b5085935050505092915050565b600061413582614885565b61413f818561491f565b9350836020820285016141518561483a565b8060005b8581101561418d578484038952815161416e8582613ffc565b9450614179836148c9565b925060208a01995050600181019050614155565b50829750879550505050505092915050565b60006141aa82614890565b6141b48185614930565b9350836020820285016141c68561484a565b8060005b8581101561420257848403895281516141e38582614010565b94506141ee836148d6565b925060208a019950506001810190506141ca565b50829750879550505050505092915050565b600061421f8261489b565b6142298185614941565b93508360208202850161423b8561485a565b8060005b8581101561427757848403895281516142588582614024565b9450614263836148e3565b925060208a0199505060018101905061423f565b50829750879550505050505092915050565b60006142948261489b565b61429e8185614952565b9350836020820285016142b08561485a565b8060005b858110156142ec57848403895281516142cd8582614024565b94506142d8836148e3565b925060208a019950506001810190506142b4565b50829750879550505050505092915050565b6000614309826148a6565b6143138185614963565b935061431e8361486a565b8060005b8381101561434f5781516143368882614038565b9750614341836148f0565b925050600181019050614322565b5085935050505092915050565b6000614367826148b1565b6143718185614974565b9350614381818560208601614a42565b61438a81614c1b565b840191505092915050565b60006143a0826148b1565b6143aa8185614985565b93506143ba818560208601614a42565b6143c381614c1b565b840191505092915050565b60006143d9826148b1565b6143e38185614996565b93506143f3818560208601614a42565b80840191505092915050565b600061440c603083614985565b915061441782614c2c565b604082019050919050565b600061442f601283614985565b915061443a82614c7b565b602082019050919050565b6000614452601583614985565b915061445d82614ca4565b602082019050919050565b6000614475602783614985565b915061448082614ccd565b604082019050919050565b6000614498602683614985565b91506144a382614d1c565b604082019050919050565b60006144bb600b83614985565b91506144c682614d6b565b602082019050919050565b60006144de601d83614985565b91506144e982614d94565b602082019050919050565b6000614501600b83614985565b915061450c82614dbd565b602082019050919050565b6000614524602283614985565b915061452f82614de6565b604082019050919050565b6000614547600d83614985565b915061455282614e35565b602082019050919050565b61456681614a29565b82525050565b61457581614a29565b82525050565b600061458782846143ce565b915081905092915050565b60006020820190506145a7600083018461405f565b92915050565b600060208201905081810360008301526145c781846140cc565b905092915050565b600060208201905081810360008301526145e9818461412a565b905092915050565b6000602082019050818103600083015261460b818461419f565b905092915050565b6000602082019050818103600083015261462d8184614289565b905092915050565b6000602082019050818103600083015261464f81846142fe565b905092915050565b600060208201905081810360008301526146718184614395565b905092915050565b60006020820190508181036000830152614692816143ff565b9050919050565b600060208201905081810360008301526146b281614422565b9050919050565b600060208201905081810360008301526146d281614445565b9050919050565b600060208201905081810360008301526146f281614468565b9050919050565b600060208201905081810360008301526147128161448b565b9050919050565b60006020820190508181036000830152614732816144ae565b9050919050565b60006020820190508181036000830152614752816144d1565b9050919050565b60006020820190508181036000830152614772816144f4565b9050919050565b6000602082019050818103600083015261479281614517565b9050919050565b600060208201905081810360008301526147b28161453a565b9050919050565b60006020820190506147ce600083018461456c565b92915050565b60006147de6147ef565b90506147ea8282614ad1565b919050565b6000604051905090565b600067ffffffffffffffff82111561481457614813614bd8565b5b61481d82614c1b565b9050602081019050919050565b6000819050602082019050919050565b6000819050602082019050919050565b6000819050602082019050919050565b6000819050602082019050919050565b6000819050602082019050919050565b600081519050919050565b600081519050919050565b600081519050919050565b600081519050919050565b600081519050919050565b600081519050919050565b6000602082019050919050565b6000602082019050919050565b6000602082019050919050565b6000602082019050919050565b6000602082019050919050565b600082825260208201905092915050565b600082825260208201905092915050565b600082825260208201905092915050565b600082825260208201905092915050565b600082825260208201905092915050565b600082825260208201905092915050565b600082825260208201905092915050565b600082825260208201905092915050565b600082825260208201905092915050565b600081905092915050565b60006149ac82614a29565b91506149b783614a29565b9250827fffffffffffffffffffffffffffffffffffffffffffffffffffffffffffffffff038211156149ec576149eb614b4b565b5b828201905092915050565b6000614a0282614a09565b9050919050565b600073ffffffffffffffffffffffffffffffffffffffff82169050919050565b6000819050919050565b82818337600083830152505050565b60005b83811015614a60578082015181840152602081019050614a45565b83811115614a6f576000848401525b50505050565b6000614a8082614a29565b91506000821415614a9457614a93614b4b565b5b600182039050919050565b60006002820490506001821680614ab757607f821691505b60208210811415614acb57614aca614b7a565b5b50919050565b614ada82614c1b565b810181811067ffffffffffffffff82111715614af957614af8614bd8565b5b80604052505050565b6000614b0d82614a29565b91507fffffffffffffffffffffffffffffffffffffffffffffffffffffffffffffffff821415614b4057614b3f614b4b565b5b600182019050919050565b7f4e487b7100000000000000000000000000000000000000000000000000000000600052601160045260246000fd5b7f4e487b7100000000000000000000000000000000000000000000000000000000600052602260045260246000fd5b7f4e487b7100000000000000000000000000000000000000000000000000000000600052603260045260246000fd5b7f4e487b7100000000000000000000000000000000000000000000000000000000600052604160045260246000fd5b600080fd5b600080fd5b600080fd5b600080fd5b6000601f19601f8301169050919050565b7f4f6e6c792041646d696e206f72204163636f756e74204f776e6572206973204160008201527f6c6c6f77656420746f2061636365737300000000000000000000000000000000602082015250565b7f616c726561647920726567697374657265640000000000000000000000000000600082015250565b7f4e6f2073756368205573657220466f756e642121210000000000000000000000600082015250565b7f4f6e6c79204163636f756e74204f776e657220697320416c6c6f77656420746f60008201527f2061636365737300000000000000000000000000000000000000000000000000602082015250565b7f4e6f7420612076616c696420476f7665726e6d656e742057616c6c657420416460008201527f6472657373210000000000000000000000000000000000000000000000000000602082015250565b7f4e6f7420616c6c6f776564000000000000000000000000000000000000000000600082015250565b7f4f6e652050726f7065727479204f776e65722063616e20416363657373000000600082015250565b7f4e6f7420416c6c6f776564000000000000000000000000000000000000000000600082015250565b7f4f6e6c7920476f7665726e6d656e742063616e2061636365737320746869732160008201527f2121000000000000000000000000000000000000000000000000000000000000602082015250565b7f496e76616c696420496e64657800000000000000000000000000000000000000600082015250565b614e67816149f7565b8114614e7257600080fd5b50565b614e7e81614a29565b8114614e8957600080fd5b5056fea264697066735822122063d0806c714b0b70e77c31f27fb754023390e4d312d1e26f763a1f99ef14baa164736f6c63430008070033",
  "linkReferences": {},
  "deployedLinkReferences": {}
}