{
  "_format": "hh-sol-artifact-1",
  "contractName": "Authentication",
  "sourceName": "contracts/Authentication.sol",
  "abi": [
    {
      "inputs": [],
      "stateMutability": "nonpayable",
      "type": "constructor"
    },
    {
      "inputs": [
        {
          "internalType": "string",
          "name": "pan",
          "type": "string"
        }
      ],
      "name": "accessDocs",
      "outputs": [
        {
          "internalType": "string[]",
          "name": "",
          "type": "string[]"
        }
      ],
      "stateMutability": "view",
      "type": "function"
    },
    {
      "inputs": [
        {
          "internalType": "string",
          "name": "_property_location",
          "type": "string"
        },
        {
          "internalType": "string",
          "name": "_newipfslink",
          "type": "string"
        }
      ],
      "name": "allot_property",
      "outputs": [],
      "stateMutability": "nonpayable",
      "type": "function"
    },
    {
      "inputs": [
        {
          "internalType": "string",
          "name": "pan",
          "type": "string"
        }
      ],
      "name": "checkPANDetails",
      "outputs": [
        {
          "internalType": "string",
          "name": "",
          "type": "string"
        }
      ],
      "stateMutability": "view",
      "type": "function"
    },
    {
      "inputs": [
        {
          "internalType": "address",
          "name": "userAddr",
          "type": "address"
        }
      ],
      "name": "getEmail",
      "outputs": [
        {
          "internalType": "string",
          "name": "",
          "type": "string"
        }
      ],
      "stateMutability": "view",
      "type": "function"
    },
    {
      "inputs": [],
      "name": "getGovAddress",
      "outputs": [
        {
          "internalType": "address",
          "name": "",
          "type": "address"
        }
      ],
      "stateMutability": "view",
      "type": "function"
    },
    {
      "inputs": [
        {
          "internalType": "address",
          "name": "userAddr",
          "type": "address"
        }
      ],
      "name": "getIPFS",
      "outputs": [
        {
          "internalType": "string",
          "name": "",
          "type": "string"
        }
      ],
      "stateMutability": "view",
      "type": "function"
    },
    {
      "inputs": [
        {
          "internalType": "address",
          "name": "userAddr",
          "type": "address"
        }
      ],
      "name": "getOTP",
      "outputs": [
        {
          "internalType": "uint256",
          "name": "",
          "type": "uint256"
        }
      ],
      "stateMutability": "view",
      "type": "function"
    },
    {
      "inputs": [],
      "name": "getSignatureHash",
      "outputs": [
        {
          "internalType": "string",
          "name": "",
          "type": "string"
        }
      ],
      "stateMutability": "view",
      "type": "function"
    },
    {
      "inputs": [],
      "name": "getSignatureHashGov",
      "outputs": [
        {
          "internalType": "string",
          "name": "",
          "type": "string"
        }
      ],
      "stateMutability": "view",
      "type": "function"
    },
    {
      "inputs": [],
      "name": "getUserAddress",
      "outputs": [
        {
          "internalType": "address",
          "name": "",
          "type": "address"
        }
      ],
      "stateMutability": "view",
      "type": "function"
    },
    {
      "inputs": [
        {
          "internalType": "string",
          "name": "pan",
          "type": "string"
        }
      ],
      "name": "getUserAddressfromPAN",
      "outputs": [
        {
          "internalType": "address",
          "name": "",
          "type": "address"
        }
      ],
      "stateMutability": "view",
      "type": "function"
    },
    {
      "inputs": [
        {
          "internalType": "address",
          "name": "userAddr",
          "type": "address"
        }
      ],
      "name": "get_all_property_details",
      "outputs": [
        {
          "internalType": "string[][]",
          "name": "",
          "type": "string[][]"
        }
      ],
      "stateMutability": "view",
      "type": "function"
    },
    {
      "inputs": [
        {
          "internalType": "address",
          "name": "userAddr",
          "type": "address"
        }
      ],
      "name": "get_all_property_index",
      "outputs": [
        {
          "internalType": "uint256[]",
          "name": "",
          "type": "uint256[]"
        }
      ],
      "stateMutability": "view",
      "type": "function"
    },
    {
      "inputs": [
        {
          "internalType": "address",
          "name": "userAddr",
          "type": "address"
        }
      ],
      "name": "get_all_property_owners_addresses",
      "outputs": [
        {
          "internalType": "address[][]",
          "name": "",
          "type": "address[][]"
        }
      ],
      "stateMutability": "view",
      "type": "function"
    },
    {
      "inputs": [
        {
          "internalType": "address",
          "name": "userAddr",
          "type": "address"
        }
      ],
      "name": "get_current_property_index",
      "outputs": [
        {
          "internalType": "uint256",
          "name": "",
          "type": "uint256"
        }
      ],
      "stateMutability": "view",
      "type": "function"
    },
    {
      "inputs": [
        {
          "internalType": "address",
          "name": "userAddr",
          "type": "address"
        },
        {
          "internalType": "uint256",
          "name": "index",
          "type": "uint256"
        }
      ],
      "name": "get_property_details",
      "outputs": [
        {
          "internalType": "string[]",
          "name": "",
          "type": "string[]"
        }
      ],
      "stateMutability": "view",
      "type": "function"
    },
    {
      "inputs": [
        {
          "internalType": "address",
          "name": "userAddr",
          "type": "address"
        },
        {
          "internalType": "uint256",
          "name": "index",
          "type": "uint256"
        }
      ],
      "name": "get_property_owners_addresses",
      "outputs": [
        {
          "internalType": "address[]",
          "name": "",
          "type": "address[]"
        }
      ],
      "stateMutability": "view",
      "type": "function"
    },
    {
      "inputs": [],
      "name": "nbOfUsers",
      "outputs": [
        {
          "internalType": "uint256",
          "name": "",
          "type": "uint256"
        }
      ],
      "stateMutability": "view",
      "type": "function"
    },
    {
      "inputs": [],
      "name": "propertyIndex",
      "outputs": [
        {
          "internalType": "uint256",
          "name": "",
          "type": "uint256"
        }
      ],
      "stateMutability": "view",
      "type": "function"
    },
    {
      "inputs": [
        {
          "internalType": "string",
          "name": "_signature",
          "type": "string"
        },
        {
          "internalType": "string",
          "name": "pan",
          "type": "string"
        },
        {
          "internalType": "string",
          "name": "email",
          "type": "string"
        }
      ],
      "name": "register",
      "outputs": [],
      "stateMutability": "nonpayable",
      "type": "function"
    },
    {
      "inputs": [
        {
          "internalType": "string",
          "name": "propertyDesc",
          "type": "string"
        },
        {
          "internalType": "string",
          "name": "oldLink",
          "type": "string"
        },
        {
          "internalType": "string",
          "name": "newLink",
          "type": "string"
        }
      ],
      "name": "registerDocs",
      "outputs": [],
      "stateMutability": "nonpayable",
      "type": "function"
    },
    {
      "inputs": [
        {
          "internalType": "string",
          "name": "_signature",
          "type": "string"
        }
      ],
      "name": "registerGov",
      "outputs": [],
      "stateMutability": "nonpayable",
      "type": "function"
    },
    {
      "inputs": [
        {
          "internalType": "string",
          "name": "_property_location",
          "type": "string"
        },
        {
          "internalType": "string",
          "name": "panNumber",
          "type": "string"
        },
        {
          "internalType": "string",
          "name": "_newipfslink",
          "type": "string"
        },
        {
          "internalType": "uint256",
          "name": "index",
          "type": "uint256"
        }
      ],
      "name": "sell_property",
      "outputs": [],
      "stateMutability": "nonpayable",
      "type": "function"
    },
    {
      "inputs": [
        {
          "internalType": "address",
          "name": "userAddr",
          "type": "address"
        },
        {
          "internalType": "string",
          "name": "x",
          "type": "string"
        }
      ],
      "name": "setIPFS",
      "outputs": [],
      "stateMutability": "nonpayable",
      "type": "function"
    },
    {
      "inputs": [
        {
          "internalType": "string",
          "name": "pan",
          "type": "string"
        },
        {
          "internalType": "uint256",
          "name": "otp",
          "type": "uint256"
        }
      ],
      "name": "setOTP",
      "outputs": [],
      "stateMutability": "nonpayable",
      "type": "function"
    },
    {
      "inputs": [
        {
          "internalType": "address",
          "name": "userAddr",
          "type": "address"
        },
        {
          "internalType": "uint256",
          "name": "index",
          "type": "uint256"
        }
      ],
      "name": "set_current_property_index",
      "outputs": [],
      "stateMutability": "nonpayable",
      "type": "function"
    }
  ],
  "bytecode": "0x608060405234801561001057600080fd5b506000808190555060006001819055506151c58061002f6000396000f3fe608060405234801561001057600080fd5b506004361061018e5760003560e01c80639bca9f1a116100de578063d15d7daa11610097578063ebc3eee811610071578063ebc3eee8146104f1578063eef8fff11461050f578063ef4a63b81461052b578063f56720b5146105495761018e565b8063d15d7daa14610489578063daa88a41146104a5578063dd66f08c146104c15761018e565b80639bca9f1a146103b5578063b944dc34146103e5578063c127ae4114610401578063c2a841791461041f578063c2c3e5661461044f578063c2ea2a8a1461046d5761018e565b80634fa7353c1161014b57806374efaa611161012557806374efaa61146103095780637be6a23b146103395780638ae8f875146103695780639400f3b4146103995761018e565b80634fa7353c1461028d578063614ed19e146102bd578063636d757d146102d95761018e565b80630896ee4e1461019357806312679323146101c357806331b2a8c2146101e157806333f235c1146102115780633fad184b146102415780634cd08d0314610271575b600080fd5b6101ad60048036038101906101a89190613f3c565b610567565b6040516101ba91906148f7565b60405180910390f35b6101cb6106f0565b6040516101d89190614a59565b60405180910390f35b6101fb60048036038101906101f69190614005565b6106f6565b60405161020891906148f7565b60405180910390f35b61022b60048036038101906102269190614005565b6107e6565b60405161023891906148b3565b60405180910390f35b61025b60048036038101906102569190613fc5565b610bc8565b60405161026891906148b3565b60405180910390f35b61028b600480360381019061028691906140c6565b6110d7565b005b6102a760048036038101906102a29190613f3c565b6113a7565b6040516102b491906148f7565b60405180910390f35b6102d760048036038101906102d29190614228565b611595565b005b6102f360048036038101906102ee9190614005565b61169d565b6040516103009190614832565b60405180910390f35b610323600480360381019061031e9190613f3c565b611767565b6040516103309190614a59565b60405180910390f35b610353600480360381019061034e9190613f3c565b61186a565b6040516103609190614a59565b60405180910390f35b610383600480360381019061037e9190613f3c565b61196b565b60405161039091906148d5565b60405180910390f35b6103b360048036038101906103ae9190614005565b611b9a565b005b6103cf60048036038101906103ca9190613fc5565b611dc8565b6040516103dc919061484d565b60405180910390f35b6103ff60048036038101906103fa91906140c6565b612025565b005b6104096121ff565b60405161041691906148f7565b60405180910390f35b61043960048036038101906104349190613f3c565b6123a1565b604051610446919061486f565b60405180910390f35b610457612658565b60405161046491906148f7565b60405180910390f35b6104876004803603810190610482919061416d565b6127fa565b005b6104a3600480360381019061049e919061404e565b613074565b005b6104bf60048036038101906104ba9190613fc5565b613350565b005b6104db60048036038101906104d69190613f3c565b613506565b6040516104e89190614891565b60405180910390f35b6104f9613a49565b6040516105069190614832565b60405180910390f35b61052960048036038101906105249190613f69565b613ab3565b005b610533613bc5565b6040516105409190614832565b60405180910390f35b610551613c2f565b60405161055e9190614a59565b60405180910390f35b60608173ffffffffffffffffffffffffffffffffffffffff163373ffffffffffffffffffffffffffffffffffffffff1614806105e25750739c459e648558e3e94432ea1ce9ce9859f39290b773ffffffffffffffffffffffffffffffffffffffff163373ffffffffffffffffffffffffffffffffffffffff16145b610621576040517f08c379a000000000000000000000000000000000000000000000000000000000815260040161061890614979565b60405180910390fd5b600b60008373ffffffffffffffffffffffffffffffffffffffff1673ffffffffffffffffffffffffffffffffffffffff168152602001908152602001600020805461066b90614d73565b80601f016020809104026020016040519081016040528092919081815260200182805461069790614d73565b80156106e45780601f106106b9576101008083540402835291602001916106e4565b820191906000526020600020905b8154815290600101906020018083116106c757829003601f168201915b50505050509050919050565b60005481565b6060600073ffffffffffffffffffffffffffffffffffffffff16600483604051610720919061481b565b908152602001604051809103902060009054906101000a900473ffffffffffffffffffffffffffffffffffffffff1673ffffffffffffffffffffffffffffffffffffffff1614156107a8576040518060400160405280600a81526020017f4e6f74204578697374730000000000000000000000000000000000000000000081525090506107e1565b6040518060400160405280600681526020017f457869737473000000000000000000000000000000000000000000000000000081525090505b919050565b6060739c459e648558e3e94432ea1ce9ce9859f39290b773ffffffffffffffffffffffffffffffffffffffff163373ffffffffffffffffffffffffffffffffffffffff161461086a576040517f08c379a000000000000000000000000000000000000000000000000000000000815260040161086190614a19565b60405180910390fd5b6000600367ffffffffffffffff81111561088757610886614edb565b5b6040519080825280602002602001820160405280156108ba57816020015b60608152602001906001900390816108a55790505b50905060006004846040516108cf919061481b565b908152602001604051809103902060009054906101000a900473ffffffffffffffffffffffffffffffffffffffff169050600560008273ffffffffffffffffffffffffffffffffffffffff1673ffffffffffffffffffffffffffffffffffffffff168152602001908152602001600020600001805461094d90614d73565b80601f016020809104026020016040519081016040528092919081815260200182805461097990614d73565b80156109c65780601f1061099b576101008083540402835291602001916109c6565b820191906000526020600020905b8154815290600101906020018083116109a957829003601f168201915b5050505050826000815181106109df576109de614eac565b5b6020026020010181905250600560008273ffffffffffffffffffffffffffffffffffffffff1673ffffffffffffffffffffffffffffffffffffffff1681526020019081526020016000206001018054610a3790614d73565b80601f0160208091040260200160405190810160405280929190818152602001828054610a6390614d73565b8015610ab05780601f10610a8557610100808354040283529160200191610ab0565b820191906000526020600020905b815481529060010190602001808311610a9357829003601f168201915b505050505082600181518110610ac957610ac8614eac565b5b6020026020010181905250600560008273ffffffffffffffffffffffffffffffffffffffff1673ffffffffffffffffffffffffffffffffffffffff1681526020019081526020016000206002018054610b2190614d73565b80601f0160208091040260200160405190810160405280929190818152602001828054610b4d90614d73565b8015610b9a5780601f10610b6f57610100808354040283529160200191610b9a565b820191906000526020600020905b815481529060010190602001808311610b7d57829003601f168201915b505050505082600281518110610bb357610bb2614eac565b5b60200260200101819052508192505050919050565b60608273ffffffffffffffffffffffffffffffffffffffff163373ffffffffffffffffffffffffffffffffffffffff161480610c435750739c459e648558e3e94432ea1ce9ce9859f39290b773ffffffffffffffffffffffffffffffffffffffff163373ffffffffffffffffffffffffffffffffffffffff16145b610c82576040517f08c379a0000000000000000000000000000000000000000000000000000000008152600401610c7990614919565b60405180910390fd5b8273ffffffffffffffffffffffffffffffffffffffff16600a600084815260200190815260200160002060009054906101000a900473ffffffffffffffffffffffffffffffffffffffff1673ffffffffffffffffffffffffffffffffffffffff1614610d23576040517f08c379a0000000000000000000000000000000000000000000000000000000008152600401610d1a90614a39565b60405180910390fd5b6000600367ffffffffffffffff811115610d4057610d3f614edb565b5b604051908082528060200260200182016040528015610d7357816020015b6060815260200190600190039081610d5e5790505b509050600660008573ffffffffffffffffffffffffffffffffffffffff1673ffffffffffffffffffffffffffffffffffffffff168152602001908152602001600020600960008581526020019081526020016000205481548110610dda57610dd9614eac565b5b90600052602060002090600502016001018054610df690614d73565b80601f0160208091040260200160405190810160405280929190818152602001828054610e2290614d73565b8015610e6f5780601f10610e4457610100808354040283529160200191610e6f565b820191906000526020600020905b815481529060010190602001808311610e5257829003601f168201915b505050505081600081518110610e8857610e87614eac565b5b6020026020010181905250600660008573ffffffffffffffffffffffffffffffffffffffff1673ffffffffffffffffffffffffffffffffffffffff168152602001908152602001600020600960008581526020019081526020016000205481548110610ef757610ef6614eac565b5b90600052602060002090600502016002018054610f1390614d73565b80601f0160208091040260200160405190810160405280929190818152602001828054610f3f90614d73565b8015610f8c5780601f10610f6157610100808354040283529160200191610f8c565b820191906000526020600020905b815481529060010190602001808311610f6f57829003601f168201915b505050505081600181518110610fa557610fa4614eac565b5b6020026020010181905250600660008573ffffffffffffffffffffffffffffffffffffffff1673ffffffffffffffffffffffffffffffffffffffff16815260200190815260200160002060096000858152602001908152602001600020548154811061101457611013614eac565b5b9060005260206000209060050201600301805461103090614d73565b80601f016020809104026020016040519081016040528092919081815260200182805461105c90614d73565b80156110a95780601f1061107e576101008083540402835291602001916110a9565b820191906000526020600020905b81548152906001019060200180831161108c57829003601f168201915b5050505050816002815181106110c2576110c1614eac565b5b60200260200101819052508091505092915050565b600073ffffffffffffffffffffffffffffffffffffffff16600260003373ffffffffffffffffffffffffffffffffffffffff1673ffffffffffffffffffffffffffffffffffffffff16815260200190815260200160002060010160009054906101000a900473ffffffffffffffffffffffffffffffffffffffff1673ffffffffffffffffffffffffffffffffffffffff16146111a8576040517f08c379a000000000000000000000000000000000000000000000000000000000815260040161119f90614939565b60405180910390fd5b82600260003373ffffffffffffffffffffffffffffffffffffffff1673ffffffffffffffffffffffffffffffffffffffff16815260200190815260200160002060000190805190602001906111fe929190613c35565b5033600260003373ffffffffffffffffffffffffffffffffffffffff1673ffffffffffffffffffffffffffffffffffffffff16815260200190815260200160002060010160006101000a81548173ffffffffffffffffffffffffffffffffffffffff021916908373ffffffffffffffffffffffffffffffffffffffff16021790555081600260003373ffffffffffffffffffffffffffffffffffffffff1673ffffffffffffffffffffffffffffffffffffffff16815260200190815260200160002060020190805190602001906112d6929190613c35565b5080600260003373ffffffffffffffffffffffffffffffffffffffff1673ffffffffffffffffffffffffffffffffffffffff168152602001908152602001600020600301908051906020019061132d929190613c35565b503360048360405161133f919061481b565b908152602001604051809103902060006101000a81548173ffffffffffffffffffffffffffffffffffffffff021916908373ffffffffffffffffffffffffffffffffffffffff16021790555060008081548092919061139d90614dd6565b9190505550505050565b6060600260003373ffffffffffffffffffffffffffffffffffffffff1673ffffffffffffffffffffffffffffffffffffffff16815260200190815260200160002060010160009054906101000a900473ffffffffffffffffffffffffffffffffffffffff1673ffffffffffffffffffffffffffffffffffffffff163373ffffffffffffffffffffffffffffffffffffffff1614806114845750739c459e648558e3e94432ea1ce9ce9859f39290b773ffffffffffffffffffffffffffffffffffffffff163373ffffffffffffffffffffffffffffffffffffffff16145b6114c3576040517f08c379a00000000000000000000000000000000000000000000000000000000081526004016114ba906149b9565b60405180910390fd5b600260008373ffffffffffffffffffffffffffffffffffffffff1673ffffffffffffffffffffffffffffffffffffffff168152602001908152602001600020600301805461151090614d73565b80601f016020809104026020016040519081016040528092919081815260200182805461153c90614d73565b80156115895780601f1061155e57610100808354040283529160200191611589565b820191906000526020600020905b81548152906001019060200180831161156c57829003601f168201915b50505050509050919050565b739c459e648558e3e94432ea1ce9ce9859f39290b773ffffffffffffffffffffffffffffffffffffffff163373ffffffffffffffffffffffffffffffffffffffff1614611617576040517f08c379a000000000000000000000000000000000000000000000000000000000815260040161160e906149f9565b60405180910390fd5b80600c600060048560405161162c919061481b565b908152602001604051809103902060009054906101000a900473ffffffffffffffffffffffffffffffffffffffff1673ffffffffffffffffffffffffffffffffffffffff1673ffffffffffffffffffffffffffffffffffffffff168152602001908152602001600020819055505050565b6000739c459e648558e3e94432ea1ce9ce9859f39290b773ffffffffffffffffffffffffffffffffffffffff163373ffffffffffffffffffffffffffffffffffffffff1614611721576040517f08c379a0000000000000000000000000000000000000000000000000000000008152600401611718906149f9565b60405180910390fd5b600482604051611731919061481b565b908152602001604051809103902060009054906101000a900473ffffffffffffffffffffffffffffffffffffffff169050919050565b60008173ffffffffffffffffffffffffffffffffffffffff163373ffffffffffffffffffffffffffffffffffffffff161480156117e45750739c459e648558e3e94432ea1ce9ce9859f39290b773ffffffffffffffffffffffffffffffffffffffff163373ffffffffffffffffffffffffffffffffffffffff1614155b611823576040517f08c379a000000000000000000000000000000000000000000000000000000000815260040161181a906149f9565b60405180910390fd5b600c60008373ffffffffffffffffffffffffffffffffffffffff1673ffffffffffffffffffffffffffffffffffffffff168152602001908152602001600020549050919050565b60008173ffffffffffffffffffffffffffffffffffffffff163373ffffffffffffffffffffffffffffffffffffffff1614806118e55750739c459e648558e3e94432ea1ce9ce9859f39290b773ffffffffffffffffffffffffffffffffffffffff163373ffffffffffffffffffffffffffffffffffffffff16145b611924576040517f08c379a000000000000000000000000000000000000000000000000000000000815260040161191b90614919565b60405180910390fd5b600860008373ffffffffffffffffffffffffffffffffffffffff1673ffffffffffffffffffffffffffffffffffffffff168152602001908152602001600020549050919050565b60608173ffffffffffffffffffffffffffffffffffffffff163373ffffffffffffffffffffffffffffffffffffffff1614806119e65750739c459e648558e3e94432ea1ce9ce9859f39290b773ffffffffffffffffffffffffffffffffffffffff163373ffffffffffffffffffffffffffffffffffffffff16145b611a25576040517f08c379a0000000000000000000000000000000000000000000000000000000008152600401611a1c90614919565b60405180910390fd5b6000600760008473ffffffffffffffffffffffffffffffffffffffff1673ffffffffffffffffffffffffffffffffffffffff1681526020019081526020016000205467ffffffffffffffff811115611a8057611a7f614edb565b5b604051908082528060200260200182016040528015611aae5781602001602082028036833780820191505090505b50905060005b600760008573ffffffffffffffffffffffffffffffffffffffff1673ffffffffffffffffffffffffffffffffffffffff16815260200190815260200160002054811015611b9057600660008573ffffffffffffffffffffffffffffffffffffffff1673ffffffffffffffffffffffffffffffffffffffff1681526020019081526020016000208181548110611b4c57611b4b614eac565b5b906000526020600020906005020160000154828281518110611b7157611b70614eac565b5b6020026020010181815250508080611b8890614dd6565b915050611ab4565b5080915050919050565b600073ffffffffffffffffffffffffffffffffffffffff16600360003373ffffffffffffffffffffffffffffffffffffffff1673ffffffffffffffffffffffffffffffffffffffff16815260200190815260200160002060010160009054906101000a900473ffffffffffffffffffffffffffffffffffffffff1673ffffffffffffffffffffffffffffffffffffffff1614611c6b576040517f08c379a0000000000000000000000000000000000000000000000000000000008152600401611c6290614939565b60405180910390fd5b739c459e648558e3e94432ea1ce9ce9859f39290b773ffffffffffffffffffffffffffffffffffffffff163373ffffffffffffffffffffffffffffffffffffffff1614611ced576040517f08c379a0000000000000000000000000000000000000000000000000000000008152600401611ce490614999565b60405180910390fd5b80600360003373ffffffffffffffffffffffffffffffffffffffff1673ffffffffffffffffffffffffffffffffffffffff1681526020019081526020016000206000019080519060200190611d43929190613c35565b5033600360003373ffffffffffffffffffffffffffffffffffffffff1673ffffffffffffffffffffffffffffffffffffffff16815260200190815260200160002060010160006101000a81548173ffffffffffffffffffffffffffffffffffffffff021916908373ffffffffffffffffffffffffffffffffffffffff16021790555050565b60608273ffffffffffffffffffffffffffffffffffffffff163373ffffffffffffffffffffffffffffffffffffffff161480611e435750739c459e648558e3e94432ea1ce9ce9859f39290b773ffffffffffffffffffffffffffffffffffffffff163373ffffffffffffffffffffffffffffffffffffffff16145b611e82576040517f08c379a0000000000000000000000000000000000000000000000000000000008152600401611e7990614919565b60405180910390fd5b8273ffffffffffffffffffffffffffffffffffffffff16600a600084815260200190815260200160002060009054906101000a900473ffffffffffffffffffffffffffffffffffffffff1673ffffffffffffffffffffffffffffffffffffffff1614611f23576040517f08c379a0000000000000000000000000000000000000000000000000000000008152600401611f1a90614a39565b60405180910390fd5b600660008473ffffffffffffffffffffffffffffffffffffffff1673ffffffffffffffffffffffffffffffffffffffff168152602001908152602001600020600960008481526020019081526020016000205481548110611f8757611f86614eac565b5b906000526020600020906005020160040180548060200260200160405190810160405280929190818152602001828054801561201857602002820191906000526020600020905b8160009054906101000a900473ffffffffffffffffffffffffffffffffffffffff1673ffffffffffffffffffffffffffffffffffffffff1681526020019060010190808311611fce575b5050505050905092915050565b600260003373ffffffffffffffffffffffffffffffffffffffff1673ffffffffffffffffffffffffffffffffffffffff16815260200190815260200160002060010160009054906101000a900473ffffffffffffffffffffffffffffffffffffffff1673ffffffffffffffffffffffffffffffffffffffff163373ffffffffffffffffffffffffffffffffffffffff16146120f5576040517f08c379a00000000000000000000000000000000000000000000000000000000081526004016120ec90614959565b60405180910390fd5b82600560003373ffffffffffffffffffffffffffffffffffffffff1673ffffffffffffffffffffffffffffffffffffffff168152602001908152602001600020600001908051906020019061214b929190613c35565b5081600560003373ffffffffffffffffffffffffffffffffffffffff1673ffffffffffffffffffffffffffffffffffffffff16815260200190815260200160002060010190805190602001906121a2929190613c35565b5080600560003373ffffffffffffffffffffffffffffffffffffffff1673ffffffffffffffffffffffffffffffffffffffff16815260200190815260200160002060020190805190602001906121f9929190613c35565b50505050565b6060600260003373ffffffffffffffffffffffffffffffffffffffff1673ffffffffffffffffffffffffffffffffffffffff16815260200190815260200160002060010160009054906101000a900473ffffffffffffffffffffffffffffffffffffffff1673ffffffffffffffffffffffffffffffffffffffff163373ffffffffffffffffffffffffffffffffffffffff16146122d1576040517f08c379a00000000000000000000000000000000000000000000000000000000081526004016122c8906149b9565b60405180910390fd5b600260003373ffffffffffffffffffffffffffffffffffffffff1673ffffffffffffffffffffffffffffffffffffffff168152602001908152602001600020600001805461231e90614d73565b80601f016020809104026020016040519081016040528092919081815260200182805461234a90614d73565b80156123975780601f1061236c57610100808354040283529160200191612397565b820191906000526020600020905b81548152906001019060200180831161237a57829003601f168201915b5050505050905090565b60608173ffffffffffffffffffffffffffffffffffffffff163373ffffffffffffffffffffffffffffffffffffffff16148061241c5750739c459e648558e3e94432ea1ce9ce9859f39290b773ffffffffffffffffffffffffffffffffffffffff163373ffffffffffffffffffffffffffffffffffffffff16145b61245b576040517f08c379a000000000000000000000000000000000000000000000000000000000815260040161245290614919565b60405180910390fd5b6000600760008473ffffffffffffffffffffffffffffffffffffffff1673ffffffffffffffffffffffffffffffffffffffff1681526020019081526020016000205467ffffffffffffffff8111156124b6576124b5614edb565b5b6040519080825280602002602001820160405280156124e957816020015b60608152602001906001900390816124d45790505b50905060005b600760008573ffffffffffffffffffffffffffffffffffffffff1673ffffffffffffffffffffffffffffffffffffffff1681526020019081526020016000205481101561264e57600660008573ffffffffffffffffffffffffffffffffffffffff1673ffffffffffffffffffffffffffffffffffffffff168152602001908152602001600020818154811061258757612586614eac565b5b906000526020600020906005020160040180548060200260200160405190810160405280929190818152602001828054801561261857602002820191906000526020600020905b8160009054906101000a900473ffffffffffffffffffffffffffffffffffffffff1673ffffffffffffffffffffffffffffffffffffffff16815260200190600101908083116125ce575b50505050508282815181106126305761262f614eac565b5b6020026020010181905250808061264690614dd6565b9150506124ef565b5080915050919050565b6060600360003373ffffffffffffffffffffffffffffffffffffffff1673ffffffffffffffffffffffffffffffffffffffff16815260200190815260200160002060010160009054906101000a900473ffffffffffffffffffffffffffffffffffffffff1673ffffffffffffffffffffffffffffffffffffffff163373ffffffffffffffffffffffffffffffffffffffff161461272a576040517f08c379a0000000000000000000000000000000000000000000000000000000008152600401612721906149b9565b60405180910390fd5b600360003373ffffffffffffffffffffffffffffffffffffffff1673ffffffffffffffffffffffffffffffffffffffff168152602001908152602001600020600001805461277790614d73565b80601f01602080910402602001604051908101604052809291908181526020018280546127a390614d73565b80156127f05780601f106127c5576101008083540402835291602001916127f0565b820191906000526020600020905b8154815290600101906020018083116127d357829003601f168201915b5050505050905090565b600060048460405161280c919061481b565b908152602001604051809103902060009054906101000a900473ffffffffffffffffffffffffffffffffffffffff1690506000600660003373ffffffffffffffffffffffffffffffffffffffff1673ffffffffffffffffffffffffffffffffffffffff1681526020019081526020016000206009600085815260200190815260200160002054815481106128a3576128a2614eac565b5b906000526020600020906005020160040180549050905060006001826128c99190614c41565b67ffffffffffffffff8111156128e2576128e1614edb565b5b6040519080825280602002602001820160405280156129105781602001602082028036833780820191505090505b50905060005b82811015612a3057600660003373ffffffffffffffffffffffffffffffffffffffff1673ffffffffffffffffffffffffffffffffffffffff16815260200190815260200160002060096000878152602001908152602001600020548154811061298257612981614eac565b5b906000526020600020906005020160040181815481106129a5576129a4614eac565b5b9060005260206000200160009054906101000a900473ffffffffffffffffffffffffffffffffffffffff168282815181106129e3576129e2614eac565b5b602002602001019073ffffffffffffffffffffffffffffffffffffffff16908173ffffffffffffffffffffffffffffffffffffffff16815250508080612a2890614dd6565b915050612916565b5082818381518110612a4557612a44614eac565b5b602002602001019073ffffffffffffffffffffffffffffffffffffffff16908173ffffffffffffffffffffffffffffffffffffffff16815250506000600660008573ffffffffffffffffffffffffffffffffffffffff1673ffffffffffffffffffffffffffffffffffffffff1681526020019081526020016000208054905090506000600660003373ffffffffffffffffffffffffffffffffffffffff1673ffffffffffffffffffffffffffffffffffffffff168152602001908152602001600020600960008881526020019081526020016000205481548110612b2c57612b2b614eac565b5b90600052602060002090600502016003018054612b4890614d73565b80601f0160208091040260200160405190810160405280929190818152602001828054612b7490614d73565b8015612bc15780601f10612b9657610100808354040283529160200191612bc1565b820191906000526020600020905b815481529060010190602001808311612ba457829003601f168201915b50505050509050600660008673ffffffffffffffffffffffffffffffffffffffff1673ffffffffffffffffffffffffffffffffffffffff1681526020019081526020016000206040518060a001604052808881526020018b8152602001838152602001898152602001858152509080600181540180825580915050600190039060005260206000209060050201600090919091909150600082015181600001556020820151816001019080519060200190612c7d929190613c35565b506040820151816002019080519060200190612c9a929190613c35565b506060820151816003019080519060200190612cb7929190613c35565b506080820151816004019080519060200190612cd4929190613cbb565b505050600760008673ffffffffffffffffffffffffffffffffffffffff1673ffffffffffffffffffffffffffffffffffffffff1681526020019081526020016000206000815480929190612d2790614dd6565b91905055506000600960008881526020019081526020016000205490505b6001600760003373ffffffffffffffffffffffffffffffffffffffff1673ffffffffffffffffffffffffffffffffffffffff16815260200190815260200160002054612d919190614c97565b811015612ef957600660003373ffffffffffffffffffffffffffffffffffffffff1673ffffffffffffffffffffffffffffffffffffffff168152602001908152602001600020600182612de49190614c41565b81548110612df557612df4614eac565b5b9060005260206000209060050201600660003373ffffffffffffffffffffffffffffffffffffffff1673ffffffffffffffffffffffffffffffffffffffff1681526020019081526020016000208281548110612e5457612e53614eac565b5b9060005260206000209060050201600082015481600001556001820181600101908054612e8090614d73565b612e8b929190613d45565b506002820181600201908054612ea090614d73565b612eab929190613d45565b506003820181600301908054612ec090614d73565b612ecb929190613d45565b506004820181600401908054612ee2929190613dd2565b509050508080612ef190614dd6565b915050612d45565b50600660003373ffffffffffffffffffffffffffffffffffffffff1673ffffffffffffffffffffffffffffffffffffffff168152602001908152602001600020805480612f4957612f48614e7d565b5b6001900381819060005260206000209060050201600080820160009055600182016000612f769190613e24565b600282016000612f869190613e24565b600382016000612f969190613e24565b600482016000612fa69190613e64565b5050905584600a600088815260200190815260200160002060006101000a81548173ffffffffffffffffffffffffffffffffffffffff021916908373ffffffffffffffffffffffffffffffffffffffff160217905550816009600088815260200190815260200160002081905550600760003373ffffffffffffffffffffffffffffffffffffffff1673ffffffffffffffffffffffffffffffffffffffff168152602001908152602001600020600081548092919061306490614d49565b9190505550505050505050505050565b6000600167ffffffffffffffff81111561309157613090614edb565b5b6040519080825280602002602001820160405280156130bf5781602001602082028036833780820191505090505b50905033816000815181106130d7576130d6614eac565b5b602002602001019073ffffffffffffffffffffffffffffffffffffffff16908173ffffffffffffffffffffffffffffffffffffffff1681525050600660003373ffffffffffffffffffffffffffffffffffffffff1673ffffffffffffffffffffffffffffffffffffffff1681526020019081526020016000206040518060a0016040528060015481526020018581526020016040518060200160405280600081525081526020018481526020018381525090806001815401808255809150506001900390600052602060002090600502016000909190919091506000820151816000015560208201518160010190805190602001906131d7929190613c35565b5060408201518160020190805190602001906131f4929190613c35565b506060820151816003019080519060200190613211929190613c35565b50608082015181600401908051906020019061322e929190613cbb565b505050600760003373ffffffffffffffffffffffffffffffffffffffff1673ffffffffffffffffffffffffffffffffffffffff168152602001908152602001600020546009600060015481526020019081526020016000208190555033600a6000600154815260200190815260200160002060006101000a81548173ffffffffffffffffffffffffffffffffffffffff021916908373ffffffffffffffffffffffffffffffffffffffff160217905550600760003373ffffffffffffffffffffffffffffffffffffffff1673ffffffffffffffffffffffffffffffffffffffff168152602001908152602001600020600081548092919061332e90614dd6565b91905055506001600081548092919061334690614dd6565b9190505550505050565b8173ffffffffffffffffffffffffffffffffffffffff163373ffffffffffffffffffffffffffffffffffffffff161480156133cb5750739c459e648558e3e94432ea1ce9ce9859f39290b773ffffffffffffffffffffffffffffffffffffffff163373ffffffffffffffffffffffffffffffffffffffff1614155b61340a576040517f08c379a0000000000000000000000000000000000000000000000000000000008152600401613401906149d9565b60405180910390fd5b8173ffffffffffffffffffffffffffffffffffffffff16600a600083815260200190815260200160002060009054906101000a900473ffffffffffffffffffffffffffffffffffffffff1673ffffffffffffffffffffffffffffffffffffffff16146134ab576040517f08c379a00000000000000000000000000000000000000000000000000000000081526004016134a290614a39565b60405180910390fd5b6009600082815260200190815260200160002054600860008473ffffffffffffffffffffffffffffffffffffffff1673ffffffffffffffffffffffffffffffffffffffff168152602001908152602001600020819055505050565b60608173ffffffffffffffffffffffffffffffffffffffff163373ffffffffffffffffffffffffffffffffffffffff1614806135815750739c459e648558e3e94432ea1ce9ce9859f39290b773ffffffffffffffffffffffffffffffffffffffff163373ffffffffffffffffffffffffffffffffffffffff16145b6135c0576040517f08c379a00000000000000000000000000000000000000000000000000000000081526004016135b790614919565b60405180910390fd5b6000600760008473ffffffffffffffffffffffffffffffffffffffff1673ffffffffffffffffffffffffffffffffffffffff1681526020019081526020016000205467ffffffffffffffff81111561361b5761361a614edb565b5b60405190808252806020026020018201604052801561364e57816020015b60608152602001906001900390816136395790505b50905060005b600760008573ffffffffffffffffffffffffffffffffffffffff1673ffffffffffffffffffffffffffffffffffffffff16815260200190815260200160002054811015613a3f576000600367ffffffffffffffff8111156136b8576136b7614edb565b5b6040519080825280602002602001820160405280156136eb57816020015b60608152602001906001900390816136d65790505b509050600660008673ffffffffffffffffffffffffffffffffffffffff1673ffffffffffffffffffffffffffffffffffffffff168152602001908152602001600020828154811061373f5761373e614eac565b5b9060005260206000209060050201600101805461375b90614d73565b80601f016020809104026020016040519081016040528092919081815260200182805461378790614d73565b80156137d45780601f106137a9576101008083540402835291602001916137d4565b820191906000526020600020905b8154815290600101906020018083116137b757829003601f168201915b5050505050816000815181106137ed576137ec614eac565b5b6020026020010181905250600660008673ffffffffffffffffffffffffffffffffffffffff1673ffffffffffffffffffffffffffffffffffffffff168152602001908152602001600020828154811061384957613848614eac565b5b9060005260206000209060050201600201805461386590614d73565b80601f016020809104026020016040519081016040528092919081815260200182805461389190614d73565b80156138de5780601f106138b3576101008083540402835291602001916138de565b820191906000526020600020905b8154815290600101906020018083116138c157829003601f168201915b5050505050816001815181106138f7576138f6614eac565b5b6020026020010181905250600660008673ffffffffffffffffffffffffffffffffffffffff1673ffffffffffffffffffffffffffffffffffffffff168152602001908152602001600020828154811061395357613952614eac565b5b9060005260206000209060050201600301805461396f90614d73565b80601f016020809104026020016040519081016040528092919081815260200182805461399b90614d73565b80156139e85780601f106139bd576101008083540402835291602001916139e8565b820191906000526020600020905b8154815290600101906020018083116139cb57829003601f168201915b505050505081600281518110613a0157613a00614eac565b5b602002602001018190525080838381518110613a2057613a1f614eac565b5b6020026020010181905250508080613a3790614dd6565b915050613654565b5080915050919050565b6000600260003373ffffffffffffffffffffffffffffffffffffffff1673ffffffffffffffffffffffffffffffffffffffff16815260200190815260200160002060010160009054906101000a900473ffffffffffffffffffffffffffffffffffffffff16905090565b8173ffffffffffffffffffffffffffffffffffffffff163373ffffffffffffffffffffffffffffffffffffffff16148015613b2e5750739c459e648558e3e94432ea1ce9ce9859f39290b773ffffffffffffffffffffffffffffffffffffffff163373ffffffffffffffffffffffffffffffffffffffff1614155b613b6d576040517f08c379a0000000000000000000000000000000000000000000000000000000008152600401613b6490614979565b60405180910390fd5b80600b60008473ffffffffffffffffffffffffffffffffffffffff1673ffffffffffffffffffffffffffffffffffffffff1681526020019081526020016000209080519060200190613bc0929190613c35565b505050565b6000600360003373ffffffffffffffffffffffffffffffffffffffff1673ffffffffffffffffffffffffffffffffffffffff16815260200190815260200160002060010160009054906101000a900473ffffffffffffffffffffffffffffffffffffffff16905090565b60015481565b828054613c4190614d73565b90600052602060002090601f016020900481019282613c635760008555613caa565b82601f10613c7c57805160ff1916838001178555613caa565b82800160010185558215613caa579182015b82811115613ca9578251825591602001919060010190613c8e565b5b509050613cb79190613e85565b5090565b828054828255906000526020600020908101928215613d34579160200282015b82811115613d335782518260006101000a81548173ffffffffffffffffffffffffffffffffffffffff021916908373ffffffffffffffffffffffffffffffffffffffff16021790555091602001919060010190613cdb565b5b509050613d419190613e85565b5090565b828054613d5190614d73565b90600052602060002090601f016020900481019282613d735760008555613dc1565b82601f10613d845780548555613dc1565b82800160010185558215613dc157600052602060002091601f016020900482015b82811115613dc0578254825591600101919060010190613da5565b5b509050613dce9190613e85565b5090565b828054828255906000526020600020908101928215613e135760005260206000209182015b82811115613e12578254825591600101919060010190613df7565b5b509050613e209190613e85565b5090565b508054613e3090614d73565b6000825580601f10613e425750613e61565b601f016020900490600052602060002090810190613e609190613e85565b5b50565b5080546000825590600052602060002090810190613e829190613e85565b50565b5b80821115613e9e576000816000905550600101613e86565b5090565b6000613eb5613eb084614a99565b614a74565b905082815260208101848484011115613ed157613ed0614f0f565b5b613edc848285614d07565b509392505050565b600081359050613ef381615161565b92915050565b600082601f830112613f0e57613f0d614f0a565b5b8135613f1e848260208601613ea2565b91505092915050565b600081359050613f3681615178565b92915050565b600060208284031215613f5257613f51614f19565b5b6000613f6084828501613ee4565b91505092915050565b60008060408385031215613f8057613f7f614f19565b5b6000613f8e85828601613ee4565b925050602083013567ffffffffffffffff811115613faf57613fae614f14565b5b613fbb85828601613ef9565b9150509250929050565b60008060408385031215613fdc57613fdb614f19565b5b6000613fea85828601613ee4565b9250506020613ffb85828601613f27565b9150509250929050565b60006020828403121561401b5761401a614f19565b5b600082013567ffffffffffffffff81111561403957614038614f14565b5b61404584828501613ef9565b91505092915050565b6000806040838503121561406557614064614f19565b5b600083013567ffffffffffffffff81111561408357614082614f14565b5b61408f85828601613ef9565b925050602083013567ffffffffffffffff8111156140b0576140af614f14565b5b6140bc85828601613ef9565b9150509250929050565b6000806000606084860312156140df576140de614f19565b5b600084013567ffffffffffffffff8111156140fd576140fc614f14565b5b61410986828701613ef9565b935050602084013567ffffffffffffffff81111561412a57614129614f14565b5b61413686828701613ef9565b925050604084013567ffffffffffffffff81111561415757614156614f14565b5b61416386828701613ef9565b9150509250925092565b6000806000806080858703121561418757614186614f19565b5b600085013567ffffffffffffffff8111156141a5576141a4614f14565b5b6141b187828801613ef9565b945050602085013567ffffffffffffffff8111156141d2576141d1614f14565b5b6141de87828801613ef9565b935050604085013567ffffffffffffffff8111156141ff576141fe614f14565b5b61420b87828801613ef9565b925050606061421c87828801613f27565b91505092959194509250565b6000806040838503121561423f5761423e614f19565b5b600083013567ffffffffffffffff81111561425d5761425c614f14565b5b61426985828601613ef9565b925050602061427a85828601613f27565b9150509250929050565b600061429083836142f0565b60208301905092915050565b60006142a8838361430e565b905092915050565b60006142bc83836144b4565b905092915050565b60006142d083836145fc565b905092915050565b60006142e483836147fd565b60208301905092915050565b6142f981614ccb565b82525050565b61430881614ccb565b82525050565b600061431982614b1a565b6143238185614b9d565b935061432e83614aca565b8060005b8381101561435f5781516143468882614284565b975061435183614b5c565b925050600181019050614332565b5085935050505092915050565b600061437782614b1a565b6143818185614bae565b935061438c83614aca565b8060005b838110156143bd5781516143a48882614284565b97506143af83614b5c565b925050600181019050614390565b5085935050505092915050565b60006143d582614b25565b6143df8185614bbf565b9350836020820285016143f185614ada565b8060005b8581101561442d578484038952815161440e858261429c565b945061441983614b69565b925060208a019950506001810190506143f5565b50829750879550505050505092915050565b600061444a82614b30565b6144548185614bd0565b93508360208202850161446685614aea565b8060005b858110156144a2578484038952815161448385826142b0565b945061448e83614b76565b925060208a0199505060018101905061446a565b50829750879550505050505092915050565b60006144bf82614b3b565b6144c98185614be1565b9350836020820285016144db85614afa565b8060005b8581101561451757848403895281516144f885826142c4565b945061450383614b83565b925060208a019950506001810190506144df565b50829750879550505050505092915050565b600061453482614b3b565b61453e8185614bf2565b93508360208202850161455085614afa565b8060005b8581101561458c578484038952815161456d85826142c4565b945061457883614b83565b925060208a01995050600181019050614554565b50829750879550505050505092915050565b60006145a982614b46565b6145b38185614c03565b93506145be83614b0a565b8060005b838110156145ef5781516145d688826142d8565b97506145e183614b90565b9250506001810190506145c2565b5085935050505092915050565b600061460782614b51565b6146118185614c14565b9350614621818560208601614d16565b61462a81614f1e565b840191505092915050565b600061464082614b51565b61464a8185614c25565b935061465a818560208601614d16565b61466381614f1e565b840191505092915050565b600061467982614b51565b6146838185614c36565b9350614693818560208601614d16565b80840191505092915050565b60006146ac603083614c25565b91506146b782614f2f565b604082019050919050565b60006146cf601283614c25565b91506146da82614f7e565b602082019050919050565b60006146f2601583614c25565b91506146fd82614fa7565b602082019050919050565b6000614715602783614c25565b915061472082614fd0565b604082019050919050565b6000614738602683614c25565b91506147438261501f565b604082019050919050565b600061475b600b83614c25565b91506147668261506e565b602082019050919050565b600061477e601d83614c25565b915061478982615097565b602082019050919050565b60006147a1600b83614c25565b91506147ac826150c0565b602082019050919050565b60006147c4602283614c25565b91506147cf826150e9565b604082019050919050565b60006147e7600d83614c25565b91506147f282615138565b602082019050919050565b61480681614cfd565b82525050565b61481581614cfd565b82525050565b6000614827828461466e565b915081905092915050565b600060208201905061484760008301846142ff565b92915050565b60006020820190508181036000830152614867818461436c565b905092915050565b6000602082019050818103600083015261488981846143ca565b905092915050565b600060208201905081810360008301526148ab818461443f565b905092915050565b600060208201905081810360008301526148cd8184614529565b905092915050565b600060208201905081810360008301526148ef818461459e565b905092915050565b600060208201905081810360008301526149118184614635565b905092915050565b600060208201905081810360008301526149328161469f565b9050919050565b60006020820190508181036000830152614952816146c2565b9050919050565b60006020820190508181036000830152614972816146e5565b9050919050565b6000602082019050818103600083015261499281614708565b9050919050565b600060208201905081810360008301526149b28161472b565b9050919050565b600060208201905081810360008301526149d28161474e565b9050919050565b600060208201905081810360008301526149f281614771565b9050919050565b60006020820190508181036000830152614a1281614794565b9050919050565b60006020820190508181036000830152614a32816147b7565b9050919050565b60006020820190508181036000830152614a52816147da565b9050919050565b6000602082019050614a6e600083018461480c565b92915050565b6000614a7e614a8f565b9050614a8a8282614da5565b919050565b6000604051905090565b600067ffffffffffffffff821115614ab457614ab3614edb565b5b614abd82614f1e565b9050602081019050919050565b6000819050602082019050919050565b6000819050602082019050919050565b6000819050602082019050919050565b6000819050602082019050919050565b6000819050602082019050919050565b600081519050919050565b600081519050919050565b600081519050919050565b600081519050919050565b600081519050919050565b600081519050919050565b6000602082019050919050565b6000602082019050919050565b6000602082019050919050565b6000602082019050919050565b6000602082019050919050565b600082825260208201905092915050565b600082825260208201905092915050565b600082825260208201905092915050565b600082825260208201905092915050565b600082825260208201905092915050565b600082825260208201905092915050565b600082825260208201905092915050565b600082825260208201905092915050565b600082825260208201905092915050565b600081905092915050565b6000614c4c82614cfd565b9150614c5783614cfd565b9250827fffffffffffffffffffffffffffffffffffffffffffffffffffffffffffffffff03821115614c8c57614c8b614e1f565b5b828201905092915050565b6000614ca282614cfd565b9150614cad83614cfd565b925082821015614cc057614cbf614e1f565b5b828203905092915050565b6000614cd682614cdd565b9050919050565b600073ffffffffffffffffffffffffffffffffffffffff82169050919050565b6000819050919050565b82818337600083830152505050565b60005b83811015614d34578082015181840152602081019050614d19565b83811115614d43576000848401525b50505050565b6000614d5482614cfd565b91506000821415614d6857614d67614e1f565b5b600182039050919050565b60006002820490506001821680614d8b57607f821691505b60208210811415614d9f57614d9e614e4e565b5b50919050565b614dae82614f1e565b810181811067ffffffffffffffff82111715614dcd57614dcc614edb565b5b80604052505050565b6000614de182614cfd565b91507fffffffffffffffffffffffffffffffffffffffffffffffffffffffffffffffff821415614e1457614e13614e1f565b5b600182019050919050565b7f4e487b7100000000000000000000000000000000000000000000000000000000600052601160045260246000fd5b7f4e487b7100000000000000000000000000000000000000000000000000000000600052602260045260246000fd5b7f4e487b7100000000000000000000000000000000000000000000000000000000600052603160045260246000fd5b7f4e487b7100000000000000000000000000000000000000000000000000000000600052603260045260246000fd5b7f4e487b7100000000000000000000000000000000000000000000000000000000600052604160045260246000fd5b600080fd5b600080fd5b600080fd5b600080fd5b6000601f19601f8301169050919050565b7f4f6e6c792041646d696e206f72204163636f756e74204f776e6572206973204160008201527f6c6c6f77656420746f2061636365737300000000000000000000000000000000602082015250565b7f616c726561647920726567697374657265640000000000000000000000000000600082015250565b7f4e6f2073756368205573657220466f756e642121210000000000000000000000600082015250565b7f4f6e6c79204163636f756e74204f776e657220697320416c6c6f77656420746f60008201527f2061636365737300000000000000000000000000000000000000000000000000602082015250565b7f4e6f7420612076616c696420476f7665726e6d656e742057616c6c657420416460008201527f6472657373210000000000000000000000000000000000000000000000000000602082015250565b7f4e6f7420616c6c6f776564000000000000000000000000000000000000000000600082015250565b7f4f6e652050726f7065727479204f776e65722063616e20416363657373000000600082015250565b7f4e6f7420416c6c6f776564000000000000000000000000000000000000000000600082015250565b7f4f6e6c7920476f7665726e6d656e742063616e2061636365737320746869732160008201527f2121000000000000000000000000000000000000000000000000000000000000602082015250565b7f496e76616c696420496e64657800000000000000000000000000000000000000600082015250565b61516a81614ccb565b811461517557600080fd5b50565b61518181614cfd565b811461518c57600080fd5b5056fea26469706673582212209fade610351ef60f63d1b47112981008be629027e3a63b2b9a6ab87916cc737b64736f6c63430008070033",
  "linkReferences": {},
  "deployedLinkReferences": {}
}